:020000040800F2
:1000000020180020CD02000803310008013000084C
:10001000013100089F1C0008A53300080000000003
:100020000000000000000000000000003502000891
:10003000A11C000800000000790200080D31000832
:10004000E7020008E7020008E7020008E7020008EC
:10005000E7020008E7020008E7020008E7020008DC
:10006000E7020008E7020008E7020008E7020008CC
:10007000E7020008E7020008E7020008E7020008BC
:10008000E7020008E7020008E7020008E7020008AC
:1000900099330008E7020008E7020008E7020008B9
:1000A000E7020008E7020008E7020008E70200088C
:1000B000E702000899310008E7020008E70200089B
:1000C000E7020008E7020008E7020008E70200086C
:1000D000E7020008E7020008E7020008E70200085C
:1000E000E7020008E7020008E702000800F002F853
:1000F00000F090F80AA090E8000C82448344AAF132
:100100000107DA4501D100F085F8AFF2090EBAE82F
:100110000F0013F0010F18BFFB1A43F0010318473B
:100120003040000050400000103A24BF78C878C129
:10013000FAD8520724BF30C830C144BF04680C60ED
:10014000704700000023002400250026103A28BF35
:1001500078C1FBD8520728BF30C148BF0B60704739
:100160006E2900F00782702900F05183662903F0A0
:100170004587652903F04287672903F03F87612996
:1001800003F03E8703681B0A28BF41F080016929FC
:1001900000F0B481642900F0B181752900F0AE81CE
:1001A0006F2900F0DE82782900F01D83E92900F034
:1001B0007982E42900F07682F52900F07382EF2934
:1001C00000F0DB82F82900F01C830368DB0928BFFC
:1001D00041F08001632901F01F80732901F0248020
:1001E000E32901F02F80F32901F0348000207047CB
:1001F0001FB501F081F804000020002103F0E8FEA3
:10020000401C60600020002103F0CCFEE0601FBDB8
:1002100010B510BD01F042F81146FFF7E9FF03F0F9
:1002200005F901F01FF903B4FFF7F2FF03BC01F079
:1002300067F90000224B19680868B0E8F00F80F3F6
:100240000988BFF36F8F4FF0000080F311884EF0E4
:100250000D0E70470000000006480068006880F33B
:10026000088862B661B6BFF34F8FBFF36F8F00DFB0
:1002700000BF00BF08ED00E0EFF30980BFF36F8F10
:100280000F4B1A6820E9F00F106008B54FF05000CE
:1002900080F31188BFF34F8FBFF36F8F03F0E0FC43
:1002A0004FF0000080F31188BDE808401968086825
:1002B000B0E8F00F80F30988BFF36F8F704700BF7D
:1002C0001C000020EFF305807047000009488047BC
:1002D00009480047FEE7FEE7FEE7FEE7FEE7FEE728
:1002E000FEE7FEE7FEE7FEE704480549054A064B40
:1002F0007047000097310008ED0000082012002030
:100300002018002020140020201400207CB51D4659
:1003100016460C00009001D02044401E074B7B4441
:100320002A4669460190304600F03DF905461CB169
:100330000020694600F04AF928467CBDB50200005D
:1003400010B5431C02E010F8011B71B18107FAD10E
:100350004FF0013202C88C1A8C4314EAC211F9D052
:10036000C01A0A0603D0C01E10BDC01A10BD0A0470
:1003700001D0801E10BD0902FCD0401E10BD10B57A
:10038000203AC0F00B80B1E81850203AA0E818508D
:10039000B1E81850A0E81850BFF4F5AF5FEA027C4E
:1003A00024BFB1E81850A0E8185044BF18C918C0BD
:1003B000BDE810405FEA827C24BF51F8043B40F85E
:1003C000043B08BF7047D20728BF31F8023B48BF43
:1003D00011F8012B28BF20F8023B48BF00F8012B81
:1003E00070474FF0000200B51346944696462039F8
:1003F00022BFA0E80C50A0E80C50B1F12001BFF4DE
:10040000F7AF090728BFA0E80C5048BF0CC05DF843
:1004100004EB890028BF40F8042B08BF704748BF91
:1004200020F8022B11F0804F18BF00F8012B704705
:1004300070477047704770B5044685690068C1060B
:1004400001D5302600E02026C00707D070BDD4E9D2
:10045000012130469047206A401C20626D1EF6D56F
:1004600070BD70B5044685690078C00707D170BDBE
:10047000D4E9012120209047206A401C20626D1E93
:10048000F6D570BD09684A0501D540B27047C90567
:10049000FCD500B2704709684A0501D5C0B2704763
:1004A000C905FCD580B2704770B50C460546012AD7
:1004B00005D02878800600D5EA69002302E00123F0
:1004C00005E05B1C934202D2E05C0028F9D1A869E8
:1004D000E618C01AA861286A184428622846FFF75F
:1004E000AAFF04E0D5E9012114F8010B9047B442BA
:1004F000F8D32846FFF7B5FF70BD00002DE9F041A5
:100500000646002410687529314616A510D0FFF75D
:10051000B9FF002802DA404213A507E031688A07D4
:1005200001D512A502E0490704D511A5012401E077
:10053000FFF7B1FF00210A2206F1240709E0B0FB12
:10054000F2FCB0FBF2F302FB1C003030785418468A
:10055000491C0028F3D123462A463046BDE8F04125
:1005600000F069BA000000002D0000002B00000020
:100570002000000011680268006A530501D5087068
:100580000AE0D30501D5088006E0130603D5C2179B
:10059000C1E9000200E008600120704701694A1CBF
:1005A00002610878704700B58FB0CDE901310021B4
:1005B000059105497944CDE903101146684600F0DC
:1005C00031F90FB000BD0000E5FFFFFF0A6802F837
:1005D000010B0A607047D1E900239A4202D2531CF2
:1005E0000B601070704700002DE9FF5F15468A46CA
:1005F0000446DFF8AC80F8440027D8E900103E46F6
:10060000CDE9001010E03AF816106A4602A800F092
:1006100025FE411C07D02178890603D5E2693918E7
:1006200091420DD80744761C2078800602D5E069F7
:10063000B84205DDAE42E6DB3AF816000028E2D10A
:10064000A069C01BA0612046FFF7F5FED8E90010A5
:10065000CDE90010002017E03AF818106A4602A809
:1006600000F0FCFDB0F1FF3F81460BD000250DF1FD
:10067000080B05E0D4E901211BF8050090476D1C2B
:100680004D45F7D308F10100B0428046E4DB206A13
:10069000384420622046FFF7E4FEBDE8FF9F0000DB
:1006A000523A00002DE9F0418046D21D22F00702A7
:1006B0000025D2E90002F52915A614D0011E72F119
:1006C000000106DA0023D0EB030063EB020211A65F
:1006D00008E0D8F800108B0701D50FA602E0490703
:1006E00001D50EA601251146002408F1240704E0D7
:1006F00000F05CF930323A55641C50EA0102F7D13F
:100700002B46324621464046BDE8F04100F093B901
:10071000000000002D0000002B0000002000000061
:1007200030B4002100F1240408E002F00705D208EB
:10073000303542EA4372DB086554491C52EA03052E
:10074000F3D10468002310A2250707D5A40600D41E
:1007500021B1C46901230DA2641EC46130BC00F044
:100760006AB910B5044621461068FFF794FE0246A8
:100770002046BDE810400023D2E7D21D22F0070139
:10078000D1E90023CCE700000000000030000000A9
:10079000F0B40D460188090502D5214C7C4402E0E5
:1007A0001F4C7C440E34002100F1240608E002F0C6
:1007B0000F071209E75D42EA03721B097754491CCF
:1007C00052EA0307F3D102780023120704D5702DF3
:1007D00006D009B1022311342246F0BC00F02BB937
:1007E00001231034F8E770B504460D462146106821
:1007F000FFF751FE024629462046BDE8704000231F
:10080000C6E7D21D22F00703D3E90023C0E703683F
:10081000126843F0200303600823C3610023B7E795
:10082000B43800002DE9F05F894604464FF0000A15
:10083000DFF874B1FB44C0F820A02046E168884787
:10084000002874D0252806D0D4E901219047206AD9
:10085000401C2062F1E700265F462046E168884799
:100860002028054607DB312D05D2781910F8200C19
:1008700008B10643F1E7B00701D526F00406C4F835
:100880001CA00027C4F818A02A2D09D0284602F081
:10089000AEFD38B304EB8708303DC8F8185019E0B6
:1008A00059F8041B204604EB87029161E1688847F0
:1008B000012F054618D1E069002820DA26F020062D
:1008C0001DE0D8F8180000EB800005EB4000303840
:1008D000C8F818002046E1688847054602F087FD01
:1008E0000028EED1012F0AD02E2D08D12046E16834
:1008F00088477F1C0546022F46F02006C4DBA0690E
:10090000002803DA404246F00106A061F00701D05A
:1009100026F010066C2D0BD0682D09D04C2D39D047
:100920006A2D35D0742D35D07A2D33D016E038E0CD
:10093000E1682F4620468847B842054609D16C2F0A
:1009400026D04FF48060E16806432046884705467C
:1009500004E06C2F1AD04FF4807006430DB3A5F15C
:100960004100192802D8203546F400664A46294637
:10097000204626604E46FFF7F3FB80B101280BD0DE
:10098000F61D26F0070000F1080956E74020E4E7CD
:100990008020D8E70020D6E706F104094DE7284675
:1009A00052E7206ABDE8F09F4438000030B5B0F14E
:1009B0000A024FEA900E71F100034EEA817EB0EB1D
:1009C0000E0061EB91014FEA101E4EEA017E10EB22
:1009D0000E0041EB11114FEA102E4EEA016E10EBA2
:1009E0000E0041EB11214FEA104E4EEA014E10EB82
:1009F0000E0041EB1141401841F100014FEAD000D7
:100A000040EA41704FEAD10110EB80054FEA8104C2
:100A100044EA907444EB01046D1944EB0404521B46
:100A2000A3414FF0000348BF0A3200D530BD401C3F
:100A300041F1000130BD2DE9F0470D46994692463F
:100A4000044600F124080168880604D5E06921F015
:100A50001001216000E00120A84201DD471B00E0F9
:100A60000027A1697A1902EB0900081AA061207811
:100A7000C00602D42046FFF7DEFC002608E0D4E9D9
:100A800001211AF806009047206A401C761C20625B
:100A90004E45F4DB2078C0060AD52046FFF7CBFC94
:100AA00006E0D4E9012130209047206A401C2062F2
:100AB000381EA7F10107F4DC07E0D4E9012118F89A
:100AC00005009047206A401C2062281EA5F1010500
:100AD000F3DC2046FFF7C5FC2078000602D5022093
:100AE000BDE8F0870120FBE770472DE9FF4F0C467A
:100AF0001E464FF0FF378BB0D2E90001DDF8608071
:100B00000A908A46C1F30A5505B93D4600210846B8
:100B10004FF00000BAF1000F00F4400005DA00EBDE
:100B200080004FF4400101EA50004FEA9059B9F1BA
:100B3000010F00DDB9460A9850EA4A000ED044F68B
:100B40001050A5F2FF3545432F14B8F1000F1ED009
:100B50007542291E1EDDC9F100021CE0B8F1010F2B
:100B60004FF0000001D0302103E0F24305E02154B2
:100B7000401CB042FBDB30460022002121540B997F
:100B8000C1F80880C1E900200FB0BDE8F08FBD1B9F
:100B90006D1CDEE74A4600DA694206A800F0F0FB69
:100BA00006AB93E8070003AB83E8070050460A99B9
:100BB00000F0ADFC8DE80700A0F500501F38009054
:100BC0000398002D0ADD42F21F014A460844002323
:100BD00003A90390684600F016FF09E0A0F5005055
:100BE0004A461F38002303A90390684600F020FFFF
:100BF0008DE807000004000C03D04FF0FF304108DF
:100C000000E01046B8F1000F03D000220092154614
:100C10001EE0751E05D4FFF7C9FE303262556D1E09
:100C2000F9D5B3460122084302D000227F1C04E01C
:100C30002078302801D100227F1E002A099784D015
:100C40001DE0112D07DAFFF7B1FE303262556D1C41
:100C500050EA0102F5D1084302D00098C8B10EE075
:100C60000021681E05E0235C625C63542254401E30
:100C7000491C8142F7DBAB46A81B401E09900020AF
:100C800004F80B000B98099AC0F80880C0E9002B03
:100C90007AE711264FF0000857E72DE9F04F884614
:100CA0000446D21D22F0070191B0D1E90001CDE93F
:100CB0000A0102F078FB02460B98C00F01D02D20EC
:100CC00007E02068810701D52B2002E0202101EAFE
:100CD000C000032A099001D0072A05DB03464146DC
:100CE000204600F00DFB0BE12078800601D5E0697D
:100CF00000E00620B8F1650F814606D0B8F1660F16
:100D000018D0B8F1670F70D131E00020B9F1110FA0
:100D1000009001DB112301E009F101030AAA01A9F6
:100D20000CA8FFF7E2FEDDE90C70002609F10105D1
:100D3000834647E001204B4600904FF000470AAA47
:100D400001A90CA8FFF7D1FEDDE90DB00C995D46B5
:100D5000002610B909F101000D18B9EB050003D404
:100D6000C0F1FF3609F10105A5EB09002BE0B9F14F
:100D7000010F01DA4FF001090020B9F1110F0090C5
:100D8000484601DD112300E003460AAA01A90CA888
:100D9000FFF7ABFEDDE90C704D4600268346207858
:100DA00000070AD4AB4500DA5D4601A8012D04DD39
:100DB000411911F8011C302907D04F4502DA17F10B
:100DC000040F04DA012082460FE06D1EEEE7002FCB
:100DD00002DCED1B3E4403E0781CA84200DD7D1CD4
:100DE000B81B00F1010A4FF000472078000703D438
:100DF000AA4501DB4FF0FF3A0021B7F1004F0DF19A
:100E000043088DF8431024D002202B23002F01DA51
:100E10007F422D230A21021EA0F1010000DC5FB1F8
:100E200097FBF1FC97FBF1F201FB1C7C17460CF1E0
:100E3000300C08F801CDEEE7A8F10100037021881D
:100E4000090501D5452100E06521A0F1010800F860
:100E5000011C09980FA9A1EB0807FF1D00B1012093
:100E6000411901EBEA70A1693844081A401EA061DB
:100E70002078C00602D42046FFF7DDFA099828B191
:100E8000D4E901219047206A401C20622078C006E6
:100E900022D52046FFF7CFFA1EE0002E04DBB34533
:100EA00002DD01A8805D00E03020D4E901219047F7
:100EB000206A401C2062761CAAF101005FEA000A49
:100EC0000AD100F019FAC0680168405CD4E9012138
:100ED0009047206A401C2062281EA5F10105DCDC39
:100EE00007E0D4E9012118F8010B9047206A401C63
:100EF0002062381EA7F10107F3DC2046FFF7B1FAA4
:100F0000032011B041E600002DE9F04F04460D46E4
:100F1000D21D22F0070089B0D0E900974846394633
:100F200002F041FA0246F80F01D02D2307E02068B5
:100F3000810701D52B2302E0202101EAC0038DF8AF
:100F400020300BB1012000E00020032A824601D0AE
:100F5000072A04DB2946204600F0D2F93FE1207839
:100F6000800601D40D2500E0E569C7F30A560D2D72
:100F700049DA00214FEA175B08464FF00000002FC6
:100F800000F4400007DA00EB80004FF4400100EB72
:100F9000D07001EA60008115012901DD4FF0FF31B9
:100FA00000224FEA850CBCF1180F06D31346ACF1B2
:100FB00018004FF08052C24003E04FF4801323FA30
:100FC0000CF30CF10C0CBCF1200F04D3ACF1200C91
:100FD00009FA0CF001E007FA0CF000294FF0004884
:100FE00001DD18B90FE00ED140450CD319EB020911
:100FF0005F4121B9404502D19F4329EA0209BBEB79
:10100000175F00D0761C2088000502D57B48784405
:1010100002E07A487844193808AA302302F80A30E6
:10102000037C0AF10101002E0AF1020A53546A46B8
:1010300002DC4FF0300101E04FF031014FF00108C8
:101040008DF8001002D0A6F2FF3603E059EA4701FE
:1010500000D06B4E002D02DC2178090704D54FF03B
:1010600002082E218DF80110C44600210BE0C7F3C1
:1010700003433F01C35C491C6D1E02F8083005297B
:1010800008F1010801DA002DF1DC00210CE000EB91
:101090001973491C1B786D1E082902F808304FEAA5
:1010A000091908F1010801DA002DF0DC21688B062E
:1010B00002D516E0A8F10108E04505DD02EB0803C2
:1010C00013F8013C302BF5D0B8F1000F09DD02EB2D
:1010D000080313F8013C2E2B03D1090701D4A8F112
:1010E0000108002D05DD3E2102F808106D1E08F1F3
:1010F0000108407C002E02F8080008F1010804DA1B
:101100002D20764202F8080002E02B2002F80800A9
:101110000A214FF47A70864208F101080BDB96FB36
:10112000F0F3303302F8083096FBF0F308F10108D1
:1011300000FB136601E0642E0CDB642096FBF0F3E9
:10114000303302F8083096FBF0F308F1010800FB99
:10115000136601E00A2E06DB96FBF1F0303002F850
:10116000080008F1010896FBF1F001FB1060303037
:1011700002F80800A16908F1010808EB050202EB7A
:101180000A00081AA0612078C00602D42046FFF7A2
:1011900052F9216A08AE01EB0A00206204E0D4E9AA
:1011A000012116F8010B9047BAF1010AF7D2207815
:1011B000C00602D52046FFF73EF96E4609E016F854
:1011C000010B3E280FD0D4E901219047206A401C32
:1011D0002062B8F10108F2D22046FFF742F909B0C7
:1011E0000320BDE8F08F206A2844206203E0D4E9A0
:1011F0000121302090476D1EEBD3F8E78E300000C0
:1012000002FCFFFF10B5436913B1AFF3008001E0AA
:10121000FFF74AF9012010BD127800F124010A708D
:1012200000224A700122EDE711684FF0FF32E9E732
:1012300010B5436913B1AFF3008001E0FFF7D4F9B3
:10124000012010BD128800F1240182840022C28492
:101250000122EDE711684FF0FF32E9E770B516465D
:101260000C46054600F040F8036893F80101012898
:1012700006D0FF2C0FD8185D68B101202C7070BD0E
:10128000D3F807013246214603F2071303442846E8
:10129000BDE8704018474FF0FF3070BD754600F054
:1012A000EBF8AE4605006946534620F00700854638
:1012B00018B020B5FFF718F8BDE820404FF0000641
:1012C0004FF000074FF000084FF0000B21F007012E
:1012D000AC46ACE8C009ACE8C009ACE8C009ACE871
:1012E000C0098D467047000010B500F005F8001DDC
:1012F00010BD00BFDD2C000000487047DC1100204D
:101300002DE9F0411F46044603260168072A01F42F
:10131000006004DB08B116A505E016A503E008B1DE
:1013200015A500E015A521F010002060A069C01EE1
:10133000A0610FB1401EA0612046FFF77CF84FB1BD
:10134000D4E9012138469047206A401C2062C01C25
:10135000206206E0206AFAE7D4E9012115F8010BC2
:101360009047761EF8D22046FFF77BF8BDE8F08163
:101370004E414E006E616E00494E4600696E660039
:101380002DE9F047814616468AB0354878440DC8A5
:101390008DE80D0032487844801C03AC0DC884E809
:1013A0000D0041F69B300844372190FBF1F290FB91
:1013B000F1F5A5F1800501FB12041B3C02D5644246
:1013C000012000E00020DFF898A080460027FA44C2
:1013D000AAF1BE0A0EE0E0070AD03246684607EBE3
:1013E000470101230AEB810100F022FB8DE8070091
:1013F00064107F1C002CEED1194F7F44AE3F19E0E2
:10140000E80715D007EB04100DF1180A90E80E005C
:101410008AE80E00C068F04201D19819089032465F
:10142000012306A903A800F003FB03AB83E8070030
:101430006D10641C002DE3D14FF001033246694664
:10144000B8F1000F03A802D000F0DDFA01E000F0CF
:10145000EFFAC9E90001C9F808200AB0BDE8F08731
:10146000A02D000010B50446AFF300802046BDE873
:101470001040FEF7D8BE000000487047BC110020A5
:101480004FF0013C50F8042B51F8043B9A4221D113
:10149000A2EB0C03934313EACC1317D150F8042B9F
:1014A00051F8043B9A4215D1A2EB0C03934313EA83
:1014B000CC130BD150F8042B51F8043B9A4209D1BC
:1014C000A2EB0C03934313EACC13DBD04FF00000E4
:1014D000704700BFD01A01BAB1FA81F101F01801CA
:1014E00022FA01F0CB40C1F12001DBB2C0B2C01A38
:1014F0002CFA01F3D11A914311EAC311E6D17047D6
:1015000001491820ABBEFEE72600020070475FEAE3
:10151000400C08BF91F0000F4FEA8C234FEAC12224
:1015200043EA51514FEA1C5018BF00F5F0404FEA12
:10153000300018BF41F000415FEA6C5C00F0298088
:10154000BCF1FF3F08BF40F080407047130C06BF5E
:1015500012044FF0100C4FF0000C130E04BF1202D7
:101560000CF1080C130F04BF12010CF1040C930FC3
:1015700004BF92000CF1020CD30F04BF52000CF117
:10158000010C11464FF00002A0F11F00A0EB0C006F
:10159000704711F0004F08BF704731F000413FF431
:1015A000D5AF0B0C06BF09044FF0100C4FF0000C28
:1015B0000B0E04BF09020CF1080C0B0F04BF09014C
:1015C0000CF1040C8B0F04BF89000CF1020CCB0F43
:1015D00004BF49000CF1010CCCF12003A0EB0C007E
:1015E00022FA03F302FA0CF241EA030100F10100CE
:1015F000704720F07F4C80EA030023F07F47ACEB7C
:10160000070303F57C5300F0004003F1FF032DE9CD
:1016100080494FEA154B09B44FEA144325EA0B4EB3
:1016200024EA03480FF2042606EB132749083E7804
:101630005FEA320203FB0667C7F5000707FB06F601
:101640004FEA54374FEAD64606F1020607FB066C0E
:10165000CCF1005C4FEA1C472CEA074C07FB06F470
:101660000CFB06F504EB15464FEA961634BF002036
:101670004FF000404FEAD13706FB07FC4FEA1C4C05
:101680000CFB0BF7D21B03FB0CF761EB07010CFB08
:101690000EF7B0EB074072EB17420CFB08F734BFB4
:1016A000A2EB0742B2EB074261EB17414FEA0C4451
:1016B0004FEA910706FB07FC4FEA1C4C0CFB0BF7AB
:1016C000B0EBC74072EB573203FB0CF734BFA2EB11
:1016D000C742B2EBC74261EB57310CFB0EF7B0EBE0
:1016E000C70072EB57720CFB08F734BFA2EBC702BE
:1016F000B2EBC70261EB5771039F4FEA816141EA88
:10170000921104EBCC044FEAD1374FEA826206FB18
:1017100007FC42EA90124FEA80604FEA1C4C0CFB37
:101720000BF7D21B03FB0CF761EB07010CFB0EF769
:10173000B0EB074072EB17420CFB08F734BFA2EB8B
:101740000742B2EB074261EB17414FEA8C554FEA73
:10175000910704EB9C2406FB07FC4FEA1C4C0CFB96
:101760000BF7B0EBC74072EB573203FB0CF734BFFB
:10177000A2EBC742B2EBC74261EB57310CFB0EF74D
:10178000B0EBC70072EB57720CFB08F734BFA2EB4B
:10179000C702B2EBC70261EB577115EB4C254FEA5C
:1017A000816141EA92114FEA82624FEAD13742EAFF
:1017B000901206FB07FC44F100044FEA80604FEAF8
:1017C0001C4C0CFB0BF7D21B03FB0CF761EB070166
:1017D0000CFB0EF7B0EB074072EB17420CFB08F75F
:1017E00034BFA2EB0742B2EB074261EB174115EBA6
:1017F0001C154FEA813141EA92414FEA823242EAB6
:1018000090424FEA80304FEA0C7644F1000448EAF7
:1018100003434EEA0B484FF0000EB2EB080C71EB9D
:10182000030724BF624639464EEB0E0E4FF0000B05
:101830000018524149414BEB0B0BB2EB080C71EB1A
:1018400003077BF1000B24BF624639464EEB0E0EB8
:101850004FF0000B0018524149414BEB0B0BB2EB20
:10186000080C71EB03077BF1000B24BF624639467D
:101870004EEB0E0E51EA020718BF46F0010616EBBA
:101880000E7655F1000254F1000103D5BDE889013F
:10189000BDE80088BDE88901BDE80048B61952419D
:1018A00041EB0101A3F10103704780807F7E7D7CC5
:1018B0007B7A7978777676757473727171706F6EE2
:1018C0006E6D6C6C6B6A6A6968686766666564648D
:1018D000636362616160605F5F5E5E5D5D5C5C5B17
:1018E0005B5A5A5959585857575656555555545486
:1018F000535352525251515050504F4F4F4E4E4DE4
:101900004D4D4C4C4C4B4B4B4A4A4A49494948482F
:10191000484747474746464645454544444444436F
:1019200043434342424242414141002B9C4630D412
:1019300077002BD01CB54FEA370703B44FF01000E7
:101940004FF01001BAF1000F06D0BCF1000FDCBF60
:1019500040F0080040F008014FF000000FBCBDE867
:1019600010400BF1010BBBF1010F08BF5FEA170735
:1019700022BF12F1010211F101014FF0004143F1C8
:10198000000300F0004043EA00007047F9D3570815
:10199000D0E746EA064613F1400F4FEA16461FDD30
:1019A00013F1200FDFBF16430A46002120335B42AC
:1019B000BED0C3F1200746EA064602FA07F74FEA0F
:1019C000164646EA0706C3F1200722FA03F201FA97
:1019D00007F721FA03F14FF0000342EA0702A7E7F5
:1019E00046EA020646EA06464FEA164646EA010677
:1019F000BCBF46EA0646360C4FF000034FF000022B
:101A00004FF0000194E72DE9804C9A46934670B45C
:101A100091E8380007C831EA400C48BF34EA430C6B
:101A200003D5FFF7E6FDFFF780FFF0BCBDE8008CB3
:101A30002DE9804C9A46934670B491E8380007C867
:101A400010F0804F08BF13F0804F03D100F005F86D
:101A5000FFF76BFFF0BCBDE8008C20F07F4780EA09
:101A6000030023F07F4C07EB0C03A3F57C5300F03D
:101A70000040A3F1FE0392F0000F00F0B38095F058
:101A8000000F00F077802DE901494FEA11404FEA3D
:101A9000144621EA004800FB06FC24EA064708FB3E
:101AA00006F607FB08F800FB07F718EB06484CEBB7
:101AB000164C4FEA124B18EB07484FEA15464CEB11
:101AC000174022EA0B4E0BFB06FC25EA06470EFBED
:101AD00006F607FB0EFE0BFB07F71EEB064E4CEB64
:101AE000164C4FF000061EEB074E4CEB174B18EB55
:101AF0000B0840F1000018EB0E0B58EB000840F10A
:101B000000008F1A4FF000013CBFC943661B14BF91
:101B1000B5EB040C00213CBFC943F61B4FEA174448
:101B20004EEA8E0E27EA04454FEA1C4704FB076283
:101B30002CEA074C05FB07F70CFB05F604FB0CFC35
:101B400016EB074642EB174216EB0C4642EB1C42E3
:101B50001BEB060658EB0202414146EA9E0601D500
:101B6000BDE80189B619524141EB0101A3F101031E
:101B7000BDE801894FEA14454FEA114724EA0546BA
:101B800021EA074C05FB07F406FB07F70CFB06F1FF
:101B900005FB0CFC11EB074144EB17444FEA1247DD
:101BA00011EB0C4144EB1C4422EA074C05FB07F205
:101BB00006FB07F70CFB06F605FB0CFC16EB0746CD
:101BC00042EB174216EB0C4642EB1C456A1854F1E7
:101BD000000148BF7047B619524141EB0101A3F122
:101BE0000103704795F0000F37D04FEA11424FEADA
:101BF000144721EA024624EA074C02FB07F106FBE0
:101C000007F70CFB06F402FB0CFC14EB074441EB5A
:101C100017414FEA154714EB0C4441EB1C4125EAF0
:101C2000074C02FB07F506FB07F70CFB06F602FB69
:101C30000CFC16EB074645EB174516EB0C4645EB3F
:101C40001C42121951F1000148BF7047B6195241A8
:101C500041EB0101A3F1010370474FEA14454FEA3C
:101C6000114724EA054621EA074C05FB07F106FB6C
:101C700007F70CFB06F24FF0000605FB0CFC12EB1D
:101C8000074241EB174112EB0C4251EB1C4148BF9C
:101C90007047921841EB0101A3F101037047FEE781
:101CA000704790F82020012A07D0022A05D0416A07
:101CB00041F48021416201207047006842690A4373
:101CC000426100207047000010B590F82030026893
:101CD000012B07D0022B05D0416A41F480214162DB
:101CE000012010BDD2F8000240F00100C2F800024D
:101CF000087D00F01F0301209840D2F81C32834376
:101D0000C2F81C32CB69B3B9D2F80C328343C2F8A3
:101D10000C328C894B6864F31F434C6902EBC4049A
:101D2000C4F840320C890B6864F31F434C6902EB22
:101D3000C404C4F84432CB69012B16D1D2F80C325A
:101D40000343C2F80C320C884B6864F31F434C69A0
:101D500002EBC404C4F840320C89CB6864F31F431F
:101D60004C6902EBC404C4F844328B69002BD2F8EE
:101D700004320FD053EA0003C2F804320B69002B7F
:101D8000D2F8143208D00343C2F81432096A012988
:101D900004D008E08343EFE78343F5E7D2F81C1251
:101DA0000143C2F81C12D2F8000220F00100C2F870
:101DB0000002002010BD704770B590F82040012C43
:101DC00005D0022C03D0416A41F4802128E0046848
:101DD00009B32469A40720D04FF4D874056804EB34
:101DE00001142D5915F00405956005682D591AD078
:101DF000ED08556005682C5904F00204D4604FF4D6
:101E0000DA74056804EB01142E5906F00F06082E4B
:101E10000CD308250DE0E468DCE7416A41F40011C9
:101E20004162012070BD6D0D1560E3E72D5905F08D
:101E30000F05156105682D59C5F3072595610568DE
:101E40002C59240C54614FF4DC72046802EB01122B
:101E5000A4581C700468A458240A5C700468A45830
:101E6000240C9C700468A258120EDA704FF4DE72D3
:101E7000046802EB0112A4581C710468A458240AD7
:101E80005C710468A458240C9C710468A258120E5A
:101E9000DA71006829B1016941F020010161002077
:101EA00070BDC16841F02001C160F8E72DE9F05F25
:101EB0000546006800244669D0F804908768D0F889
:101EC0000CB0D0F810A0D0F81880F10748D0F9076E
:101ED00014D001218160B80703D5284600F01DFA0F
:101EE0000CE0780702D54FF4006407E0380702D50C
:101EF0004FF4805402E0284600F00EFAF80516D59B
:101F000029684FF480708860B80503D5284600F032
:101F100006FA0CE0780502D544F4005407E03805D1
:101F200002D544F4804402E0284600F0F7F9F803B3
:101F300016D529684FF480308860B80303D5284649
:101F400000F0EFF90CE0780302D544F4004407E018
:101F5000380302D544F4803402E0284600F0E0F96A
:101F6000300707D55FEACB6004D52968102044F418
:101F70000074C86070074FF0080707D55FEA0B7060
:101F800004D52868C760284600F05AF9B00706D57E
:101F90002868C068800702D0284600F053F9700610
:101FA00007D55FEACA6004D52968102044F480642C
:101FB0000861B00607D55FEA0A7004D52868076192
:101FC000284600F079F9F00606D5286800698007F0
:101FD00002D0284600F071F9B00308D55FEAC96065
:101FE00005D5296810204860284600F067F9F003FD
:101FF00007D55FEA097004D528684760284600F0D5
:1020000091F9300446D55FEA497040D5F00504D512
:102010005FEAC87001D044F00104B00504D55FEA5E
:10202000887001D544F00204700504D55FEA487059
:1020300001D544F00404300529D518F0700F26D0DE
:1020400008F07000402815D006DC102809D02028A0
:102050000AD0302816D10AE050280ED0602811D1BD
:102060000EE044F008040DE044F010040AE044F0EF
:10207000200407E044F0400404E044F0800401E060
:1020800044F480742868816921F0700181612968B5
:1020900004204860002C05D0686A20436862284606
:1020A000FFF789FEBDE8F09F70B5040003D094F8F7
:1020B000200010B104E0012070BD204600F082F83D
:1020C0002068016841F00101016000F03DFA054619
:1020D000052604E000F038FA401B0A2811D82068D1
:1020E0004068C007F6D02068016821F00201016055
:1020F00000F02AFA05460BE000F026FA401B0A28F9
:1021000006D9606A40F40030606284F82060D2E74B
:10211000206840688007EFD4207E0128206801688D
:102120003DD021F080010160607E012820680168B7
:1021300038D021F040010160A07E012820680168AC
:1021400033D021F020010160E07E01282068016881
:102150002ED041F010010160207F01282068016825
:1021600029D021F008010160607F01282068016802
:1021700024D021F004010160D4E902010843D4E92C
:102180000412114308436168491E08432168C8616D
:1021900000206062012084F82000002070BD41F022
:1021A0008001C0E741F04001C5E741F02001CAE7E6
:1021B00021F01001CFE741F00801D4E741F004011C
:1021C000D9E7000010B586B000210091019102917D
:1021D00003910068174988422AD11748C16941F024
:1021E0000071C161C16901F000710491816941F020
:1021F000040181618069114C00F0040004904FF4E7
:10220000006000906946204600F0A0F8A0140090FD
:1022100002200190032003906946204600F096F8C2
:1022200000220521142000F02DFA142000F01CFAE1
:1022300006B010BD006400400010024000080140DC
:102240007047000070B5104B104A0021FFF7B4FD35
:102250004FF400510E4800F069F90C4D0DA02A69A9
:10226000296801F0CBF80024074E04E0315D0FA08F
:1022700001F0C4F8641C2869A042F7D8BDE870409A
:102280000CA001F0BBB8000004000020D401002025
:102290000010014052582049443A25303358204418
:1022A0004C433A256420446174613A002530325829
:1022B000200000000D0A00007047704770470000C2
:1022C00070B5044690F82000012804D0606A40F4FC
:1022D0000020606218E0022084F820002068016875
:1022E00021F00101016000F02FF905460EE000BF6A
:1022F00000F02AF9401B0A2808D9606A40F400302F
:102300006062052084F82000012070BD20684068CC
:10231000C007EDD1606270BD70477047704770476D
:10232000704770477047000070B5044600F00CF924
:102330000546601C02D004480078044400F004F90B
:10234000401BA042FAD370BD0C0000202DE9F84FCD
:10235000DFF8B8910024A9F1040B23460F2709F1F7
:10236000040AABF1040EC9E00125A5402A40AA42A7
:102370007DD1674ED1F804C0ACEB0608B44532D02D
:1023800014DCBCF1030F3AD009DCBCF1000F2AD0F9
:10239000BCF1010F1CD0BCF1020F31D11DE0BCF12A
:1023A000110F17D0BCF1120F2AD119E0B8F5881F10
:1023B00019D006DCB8F5803F15D0B8F5801F1FD1C5
:1023C00011E0B8F5001F0ED0B8F5041F18D10AE0CF
:1023D000CB6815E0CB681B1D12E0CB6808330FE01B
:1023E000CB680C330CE08B682BB1012B4FF008034A
:1023F00003D0456104E0042302E0056100E000230E
:10240000FF2A01D8064601E000F104064FEA8405E0
:1024100001D9A5F12005D6F8008007FA05FC28EAC5
:102420000C0803FA05F548EA0508C6F800804D686F
:10243000ED0062D5374DAE6946F00106AE61AD697B
:1024400024F0030605F001050095334D06EB050C5D
:10245000DCF80850A607360F07FA06F825EA080543
:10246000DFF8B880404503D14FF0000817E044E0A2
:10247000DFF8AC80404502D14FF001080FE0DFF8F3
:10248000A480404502D14FF0020808E0DFF89880B0
:10249000404502D14FF0030801E04FF0040808FA6C
:1024A00006F848EA0508CCF808804D68D9F80060BD
:1024B000ED024D4601D5164300E096432E604D686F
:1024C000DAF80060AD02554601D5164300E09643A8
:1024D0002E604D68DBF80060AD035D4601D5164304
:1024E00000E096432E604D68DEF80060ED0375460F
:1024F00001D5164300E096432E60641C0D682A4601
:10250000E5407FF431AFBDE8F88F000008040140DA
:1025100000001110001002400000014000080140BE
:10252000000C01400010014000140140C26821EA83
:1025300002030A4043EA0241016170470AB10161A6
:1025400070470904FBE700000148806870470000FD
:102550000C000020024881680278114481607047B5
:102560000C000020074810B5016841F0100101601F
:10257000032000F0A7F80F2000F006F800F050F854
:10258000002010BD0020024030B505461F4887B02E
:10259000C16941F00201C161C06906A900F00200F1
:1025A000009001A800F036F90498B0B100F052F99B
:1025B00040001749174AB0FBF1F11748491E026065
:1025C000416040F2E7320021C0E90321816081616E
:1025D00000F018FB040003D015E000F03BF9E8E739
:1025E0000D4800F03DFB04000DD11D2000F03CF82B
:1025F000102D07D2002229461D2000F043F807487D
:10260000056000E0012407B0204630BD0010024004
:1026100040420F000004004084040020100000200D
:102620000F4808B5816941F001018161816901F0BC
:1026300001010091C16941F08051C161C06900226E
:1026400000F0805000900F21901E00F01BF805480C
:10265000416821F0E06141F00071416008BD000077
:102660000010024000000140002809DB00F01F02BA
:10267000012191404009800000F1E020C0F80011E4
:1026800070470000F0B40E4B1B680C46C3F30223E6
:10269000C3F10705042D00D90425191D072901D20E
:1026A000002300E0DB1E012606FA05F1491E214049
:1026B00099409E40761E16403143F0BC00F087BE24
:1026C0000CED00E0064900F0070208684FF6FF0332
:1026D000184040EA0220034A104308607047000097
:1026E0000CED00E00000FA052DE9F0470F4605006B
:1026F00061D0434E306800F00700B84209D230681C
:1027000020F0070038433060306800F00700B8421E
:1027100051D128683B4C810712D5400703D560682A
:1027200040F4E06060602878000703D5606840F4FA
:10273000605060606068A96820F0F0000843606045
:102740002878C00728D06868012810D0216802289E
:1027500010D0890700292EDA616821F003010143B6
:102760006160FFF7F1FE804641F288390DE0216893
:102770008903EFE78901EDE7FFF7E6FEA0EB08012B
:10278000494502D90320BDE8F0876068696800F018
:102790000C00B0EB810FEFD1306800F00700B842B9
:1027A0000BD9306820F0070038433060306800F003
:1027B0000700B84201D00120E5E72878400705D599
:1027C0006068E96820F4E0600843606028780007EA
:1027D00006D56068296920F4605040EAC100606055
:1027E00000F058F86168084AC1F30311515CC84011
:1027F0000649086006480068FFF7C6FE0020C2E7E9
:102800000020024000100240324000081800002062
:10281000100000200F2202600C4A536803F00303EB
:102820004360536803F0F0038360536803F4E0638C
:10283000C36052684FF4E06303EAD20202610448C5
:10284000006800F0070008607047000000100240B8
:10285000002002400448054900684968044AC1F361
:102860000221515CC840704718000020001002404F
:10287000424000080448054900684968044AC1F319
:10288000C221515CC840704718000020001002406F
:10289000424000080E4A51680E4801F00C03042B18
:1028A00011D0082B0FD10C48C1F38343C903C05C7E
:1028B0000AD55168084AC1F34041921E515C054A4D
:1028C0005043B0FBF1F070470449484370470000A3
:1028D0000010024000127A002240000800093D006A
:1028E0002DE9F84F040070D02078C04DC00749D0C2
:1028F0006868C0F38100012807D06868C0F38100D0
:10290000022809D16868C00306D52868800339D534
:1029100060680028E7D035E06068B0F5803F0BD0F4
:1029200010B1B0F5A02F11D0286820F480302860B5
:10293000286820F4802002E0286840F48030286075
:10294000606890B1FFF700FE06460AE0286840F490
:1029500080202860F0E700BFFFF7F6FD801B6428A9
:1029600073D828688003F7D50CE0FFF7EDFD064625
:1029700005E000BFFFF7E8FD801B6428F0D8286859
:102980008003F7D420789A4E80074FF001094FF06A
:10299000000839D5686810F00C0F07D06868C0F3DC
:1029A0008100022809D16868C00306D4286880071E
:1029B00014D52069012808D110E02069B0B1C6F80B
:1029C0000090FFF7C1FD074605E00AE1FFF7BCFDF7
:1029D000C01B0228C4D828688007F7D52868616919
:1029E00020F0F80040EAC10028600DE0C6F8008041
:1029F000FFF7AAFD074604E0FFF7A6FDC01B02286B
:102A000023D828688007F7D4207800072CD5794888
:102A1000A169D9B1C0F80090FFF796FD074604E020
:102A2000FFF792FDC01B02280FD8686A8007F7D510
:102A300071484FF4FA510068B0FBF1F0009000BF0C
:102A40000098411E0091FAD20EE080E0C0F80080AC
:102A5000FFF77AFD074604E0FFF776FDC01B02286A
:102A600075D8686A8007F7D42078400760D5E86990
:102A70000027C00008D4E86940F08050E861E869A8
:102A8000012700F0805000905C480168C90513D40C
:102A90000168834641F480710160FFF755FD82466D
:102AA00006E000BFFFF750FDA0EB0A0064284ED8F7
:102AB000DBF80000C005F5D5E06801280AD008B1B0
:102AC000052813D0286A20F001002862286A20F027
:102AD000040002E0286A40F001002862E06841F248
:102AE000883B98B1FFF730FD82460BE0286A40F042
:102AF00004002862EEE700BFFFF726FDA0EB0A0105
:102B000059455AD8286A8007F6D50CE0FFF71CFD16
:102B1000824605E0FFF718FDA0EB0A0159454CD8A5
:102B2000286A8007F6D41FB1E86920F08050E86178
:102B3000E06988B36968C1F38101022944D00228A1
:102B4000C6F8608004D0FFF7FFFC044638E034E0AC
:102B5000FFF7FAFC074604E0FFF7F6FCC01B02286B
:102B60002BD828688001F7D4206AB0F5803F05D1C2
:102B70006868A16820F4003008436860D4E908015F
:102B80000843696821F4741108436860C6F86090CE
:102B9000FFF7DAFC044606E025E000BFFFF7D4FCAF
:102BA000001B022809D828688001F7D51BE000BF68
:102BB000FFF7CAFC001B022802D90320BDE8F88FEA
:102BC00028688001F4D40EE00128F7D06868226AF2
:102BD00000F48031914204D1616A00F4701088429F
:102BE00001D00120EAE70020E8E7000000100240E1
:102BF0000000424280044242180000200070004061
:102C00007047704710B5040003D094F83D0010B130
:102C100007E0012010BD002084F83C00204600F0B1
:102C20001EF8022084F83D00211D206800F0BAFA49
:102C3000012084F8460084F83E0084F83F0084F8C0
:102C4000400084F8410084F8420084F8430084F88E
:102C5000440084F8450084F83D00002010BD704712
:102C600090F83D10012901D001207047022180F821
:102C70003D100168CA6842F00102CA6000680B4951
:102C8000884208D0B0F1804F05D00949884202D06F
:102C90000849884204D1816801F00701062903D060
:102CA000016841F00101016000207047002C0140E3
:102CB000000400400008004070472DE9F041044640
:102CC0000068C66805694FF00007A90713D5B1076A
:102CD00011D5F91E016101202077206880698007E5
:102CE000204602D0FFF7E8FF04E000F07EF820461F
:102CF00000F07CF82777680716D5700714D521688F
:102D00006FF004000861022020772068806910F4C9
:102D1000407F204602D0FFF7CFFF04E000F065F8C7
:102D2000204600F063F82777280715D5300713D51C
:102D300021686FF008000861042020772068C069CE
:102D40008007204602D0FFF7B7FF04E000F04DF8FF
:102D5000204600F04BF82777E80616D5F00614D584
:102D600021686FF010000861082020772068C06992
:102D700010F4407F204602D0FFF79EFF04E000F0F1
:102D800034F8204600F032F82777E80708D0F0073B
:102D900006D021686FF001000861204600F028F895
:102DA000280608D5300606D521686FF08000086136
:102DB0002046FFF725FF680608D5700606D521686E
:102DC0006FF040000861204600F01CF8A8060AD504
:102DD000B00608D521686FF0200008612046BDE8E4
:102DE000F041FFF70EBFBDE8F0817047704700006B
:102DF00000680349884201D1FFF7ACBB704700006F
:102E000000040040704770B5040004D094F84100FD
:102E1000002510B106E0012070BD84F84050204626
:102E200000F024F8242084F841002068C16821F4CF
:102E30000051C160204600F019FA2068016921F4B0
:102E4000904101612068416921F02A0141612068B7
:102E5000C16841F40051C1606564202084F84100DC
:102E600084F842006563002070BD0000F0B585B0B5
:102E7000002400940194029403940368324F0220CA
:102E800032490322324D4602BB421AD18B6943F4C8
:102E900080438B618B6903F4804304938B6943F017
:102EA00004038B618969039201F00401049101021A
:102EB000CDE9001069462846FFF748FACDE90064DD
:102EC0001CE0244FBB4220D1CB6943F40033CB61DB
:102ED000CB6903F4003304938B6943F004038B61E3
:102EE0008969039201F0040104910421CDE90010E5
:102EF00069462846FFF72AFA082022E06946284654
:102F00000294FFF723FA05B0F0BD134DAB42FAD19E
:102F1000CB6943F48023CB61CB6903F48023049312
:102F20008B6943F008038B6189690C4D01F008013E
:102F3000CDE90321CDE9006069462846FFF706FA8E
:102F4000E814CDE90004D9E7003801400010024040
:102F5000000801400044004000480040000C0140CF
:102F60002DE9F843044690F84100984616460D4670
:102F7000202802D00220BDE8F88385B17EB1002070
:102F80006064212084F84100FFF7DEFAA6848146C0
:102F9000E684A0682027B0F5805F02D003E001201E
:102FA000E9E7206910B12E4600250EE000260CE06E
:102FB0008021204600F0B6F9A8B9C6B116F8010B79
:102FC00021684860E08C401EE084E08C4B464FF066
:102FD0000002CDF800800028EAD14FF040012046E1
:102FE00000F0A0F940B184F841700320C3E735F840
:102FF000020BC0F30800E3E784F841700020BAE751
:10300000FEE70000114808B5C16941F00071C161D7
:10301000C0690F4900F0007000900E484FF4802204
:1030200001600921416000218160C0E90312920022
:103030004261017641768176C17601774177FFF76B
:1030400033F8002801D072B6FEE708BD0010024038
:103050000064004084000020F0B585B000242548BD
:103060000094019402940394816941F010018161FC
:10307000816901F010010491816941F020018161B1
:10308000816901F020010491816941F004018161AD
:10309000816901F004010491816941F008018161B5
:1030A0008069154F00F008004FF40055049000228D
:1030B00029463846FFF742FA009502260125039675
:1030C000CDE9015469463846FFF740F9E8028DE83A
:1030D00031000A4D69462846FFF738F9A814CDE9B2
:1030E00000060320CDE9024069462846FFF72EF985
:1030F00005B0F0BD00100240001001400008014082
:10310000FEE7FEE7012000F023FAFBE710B55020B0
:1031100080F31188BFF34F8FBFF36F8F00F07AFEFB
:1031200018B104494FF080500860002080F31188E6
:1031300010BD000004ED00E030B58FB028216846D6
:10314000FDF74FF914210AA8FDF74BF901210804F6
:10315000CDE900100024029402250491CDE9075026
:103160004FF4E01009906846FFF7BAFB08B172B659
:10317000FEE70F20CDE90A054FF48060CDE90C4051
:1031800002210AA80E94FFF7AFFA002801D072B608
:10319000FEE70FB030BD70470148FFF78EBD00005D
:1031A00084040020F0B50268194B1A4C1A4D4FF0F8
:1031B0008047984205D0B84203D0A04201D0A8422F
:1031C00003D122F070064A683243984205D0B842D3
:1031D00003D0A04201D0A84203D122F44074CA68AF
:1031E00022434C6922F08002224302608A68C26254
:1031F0000A688262984201D1096901630121416133
:103200000169C90703D0016921F001010161F0BD25
:10321000002C0140000400400008004001680C310F
:1032200051E8002F22F4907241E80023002BF5D1E1
:103230000168143151E8002F22F0010241E8002317
:10324000002BF5D1016B012909D101680C3151E83E
:10325000002F22F0100241E80023002BF5D120219D
:1032600080F84210002101637047000070B50446E9
:1032700000680169E26821F440511143016121694C
:10328000A0680843616908432168CA6841F20C6379
:103290009A430243CA6020684169A26921F44071DF
:1032A000114341611E492068884202D1FFF7E2FACA
:1032B00001E0FFF7CFFA00EBC00101EB00126068FC
:1032C00064218000B2FBF0F3B3FBF1F36FF018065A
:1032D0007343B2FBF0F5B2FBF0F605EB8305322346
:1032E00003EB0515B5FBF1F5B6FBF1F605F0F005BE
:1032F00005EB0615B2FBF0F6B2FBF0F0B0FBF1F017
:103300006FF01802504306EB800003EB0010B0FB97
:10331000F1F0216800F00F002844886070BD0000C3
:10332000003801402DE9F843984617460D460446FB
:10333000089E24E0701C22D0FFF706F9A0EB0800DD
:10334000B0421AD8CEB12068C168490717D5802D80
:1033500015D0402D13D00168C94309070FD4016867
:103360000025406800902046FFF758FF0820606461
:1033700084F840500120BDE8F8830320FBE7206873
:10338000006835EA000004D00020B842D2D0002006
:10339000F1E70120F9E700000148FEF787BD0000D2
:1033A00084000020FEE7490050EAC12018BF042035
:1033B0004A0D18BF40F0010040F2FF72B2EB515FBE
:1033C00008BF40F00200012808BF05207047090728
:1033D000090E002804DB00F1E02080F8001470479B
:1033E00000F00F0000F1E02080F8141D7047303825
:1033F0000A2801D201207047002070470FB45021E5
:1034000010B503AB0848029AFCF780FF0648FCF7AA
:1034100097FF054982B24FF47A73A1F1D800FFF704
:103420009FFD10BC5DF814FB8401002088B0FFF7FD
:1034300099F8FFF781FEFFF70FFEFFF7E3FD3A482B
:1034400038494FF4E13600240160C0E901640C25DD
:10345000C460C0E904458461C461FFF7D4FC08B1CD
:1034600072B6FEE730483149483001604FF41651DA
:10347000C0E90114C460C0E904458461C461FFF778
:10348000C2FC08B172B6FEE72748294990300160B6
:10349000C0E90164C460C0E904458461C461FFF708
:1034A000B2FC08B172B6FEE7012251032148FFF7D2
:1034B00045F821480121446184610461046044604D
:1034C0008460C161C46001620E2141621838082124
:1034D0008460C0E90341402101600321416004751B
:1034E0001549A0F5B670FEF7EFFB0F482838FEF738
:1034F000E7FE0D4802212838FEF7D3FB1C220F49B6
:103500006846FCF73CFF0021684600F02DF80C49A6
:10351000086000F024F84FF4FA642046FEF704FF38
:10352000FBE7000000380140AC00002000440040F0
:10353000004800400010014008020020044000083C
:103540000000002001460020842900D0C81C7047DC
:1035500010B500B9012000F01FFB002010BD10B510
:1035600000F040FB002010BD7FB50D4604464169C8
:10357000B0F9080081B1A16971B1FFF7E3FFD4E9A7
:1035800005128DE80700D4E900102B46226900F0EF
:1035900016FC039004B070BDFFF7D4FF03A9CDE97A
:1035A0000001208A2B4682B2D4E9001000F0DAFB39
:1035B000012801D00020EDE70398EBE72DE9F04169
:1035C000184C0F460546E6682068001D00F01CFAFE
:1035D00038B9206890F82C10012088402169814377
:1035E0002161681C07D137B12168BDE8F0410E4860
:1035F000091D00F04DBA20683544B5424560216888
:1036000005D2A06BBDE8F041091D00F029BA606B3E
:10361000091D00F025FAA06A854200D2A562BDE826
:10362000F08100001C000020A80500202DE9F041D9
:10363000054600F039FA2E4CA068401CA0602068B6
:103640002C4F10B1606940B32DE02560A0680128BF
:1036500029D1002606EB860007EB800000F0F2F986
:10366000761C072EF6D323488C3000F0EBF9214866
:10367000A03000F0E7F91F48B43000F0E3F91D482E
:10368000C83000F0DFF91B48DC3000F0DBF91948E6
:103690008C3060631430A06305E02068E96AC06A7A
:1036A000884200D82560606A401C6062E96A012097
:1036B000226988401043206101EB810007EB800004
:1036C000291D00F0E5F900F00FFA606900280CD020
:1036D0002068E96AC06A884207D207494FF08050E3
:1036E0000860BFF34F8FBFF36F8FBDE8F08100001C
:1036F0001C000020CC04002004ED00E010B50446BE
:1037000090F8510058B101280CD002280FD0502059
:1037100080F31188BFF34F8FBFF36F8FFEE7206BED
:1037200000F0F6F92046BDE8104000F0F1B910BDF8
:1037300010484FF44061420706D0C01D0D4920F0EB
:103740000700411AC1F540610B4A00230144C2E958
:1037500000030839183A21F0070111604B600B6033
:103760000B1AC0E9001393604FF0004053605061A2
:1037700070470000BC05002070000020144E154C5E
:10378000A6F1C8074FF08058DFF84C9012E000BF58
:1037900000F08AF9F068C568281D00F035F9A068C6
:1037A000401EA0606068401E606000F09DF92846E1
:1037B000FFF7A4FF60680028EAD138680128F9D92A
:1037C000C9F80080BFF34F8FBFF36F8FF2E700009F
:1037D000940500201C00002004ED00E02DE9F047D6
:1037E0009A46DDE9098481466FF00303206B03EB01
:1037F00082021044089E20F00707780707D0502067
:1038000080F31188BFF34F8FBFF36F8FFEE7002562
:1038100061B1002023180A5C83F834200A5C12B1DD
:10382000401C1028F6D384F8435001E084F834504B
:10383000072E00D30626E662C4E91165201D00F0BC
:103840000CF904F1180000F008F92461C6F1070032
:103850006462A061E56484F8505052464946384697
:1038600000F0C0F82060B8F1000F01D0C8F80040A7
:10387000BDE8F08730B5114900E011460A68824280
:10388000FBD34B685C18844203D1406818444860FD
:10389000084643681C18944209D1084C183C246817
:1038A000A24209D052681A4442600A681268026053
:1038B000814200D0086030BD0460F9E7700000204C
:1038C0000648416B096829B1416BC968C9684968F4
:1038D000816270474FF0FF31FAE700001C000020C2
:1038E00008484068401C4FF0500080F3118804D015
:1038F000BFF34F8FBFF36F8FFEE7BFF34F8FBFF361
:103900006F8FFEE7780000202DE9F0410546002783
:1039100000F09EF9324E306808B9FFF709FF706970
:1039200005424ED1C5B3083568070ED005F0070033
:10393000C0F108000544680707D0502080F31188C3
:10394000BFF34F8FBFF36F8FFEE72DB370688542D3
:1039500037D82348183001460C6801E020460C4651
:103960006168A94202D221680029F7D131688C42EE
:1039700027D007682168016060680837411B10295B
:103980000FD96019420708D0502080F31188BFF387
:103990004F8FBFF36F8FFEE713E041606560FFF765
:1039A00069FF61687068401A7060B268904200D226
:1039B000B060706901430020C4E90001F068401C58
:1039C000F06000F08DFA780707D0502080F311885E
:1039D000BFF34F8FBFF36F8FFEE73846BDE8F0812E
:1039E0005800002010B5031F4FF080741C601B1F8F
:1039F00021F001011960191F024B0B601439403886
:103A00000A6010BDE1380008D0E9013201699A600E
:103A1000D0E901235A604A68824201D182684A6033
:103A2000002202610868401E0860086870470000B4
:103A3000034B036003F1540008608020106070475E
:103A40003002002000F108014FF0FF32C0E90112FE
:103A5000C160016100210160704700210161704770
:103A600030B50B685A1C02D000F1080202E002696E
:103A700004E02246546825689D42FAD953684B6099
:103A800099608A60516008610168491C016030BD1D
:103A900042684A6093688B609368596091600861DE
:103AA0000168491C01607047502080F31188BFF302
:103AB0004F8FBFF36F8F0A494868401C4860012848
:103AC0000CD10848006810F0FF0F07D0502080F399
:103AD0001188BFF34F8FBFF36F8FFEE77047000071
:103AE0007800002004ED00E00849486828B1401E35
:103AF000486001D180F311887047502080F311880D
:103B0000BFF34F8FBFF36F8FFEE7000078000020F8
:103B100070B500282AD0164DA0F1080460686969C4
:103B2000084207D1502080F31188BFF34F8FBFF3B5
:103B30006F8FFEE722683AB1502080F31188BFF3FF
:103B40004F8FBFF36F8FFEE78843606000F080F80F
:103B500060686968084468602046FFF78BFE286942
:103B6000401C2861BDE8704000F0BAB970BD00008B
:103B7000580000204FF0E0200021016181610549DB
:103B80004FF47A720968B1FBF2F1491E41610721D5
:103B9000016170471800002010B5020014D00F48D2
:103BA000006B38B1502080F31188BFF34F8FBFF303
:103BB0006F8FFEE700F04CF800211046FFF7FEFC87
:103BC00000F08EF9002807D105494FF080500860B9
:103BD000BFF34F8FBFF36F8F10BD00001C0000209C
:103BE00004ED00E010B586B00024039405AA04A9F2
:103BF00003A80494FFF71CFFDDE903010094CDE95D
:103C0000011000230EA11048059A00F0D8F80F49C2
:103C10000028C86211D0502080F31188BFF34F8F65
:103C2000BFF36F8F4FF0FF30886201204861CC6096
:103C300006B0BDE8104000F041B806B010BD00006D
:103C400049444C45000000007D3700081C0000205E
:103C50000248016B491C0163704700001C000020F2
:103C60001448016B11B10121C16170470021C1618C
:103C70000169B1FA81F1C1F11F0101EB81020E4925
:103C800051F822306BB101EB820101F108034A685F
:103C900052684A609A4201D152684A60D168016014
:103CA0007047502080F31188BFF34F8FBFF36F8FA1
:103CB000FEE700001C000020CC0400201CB52649B3
:103CC00008780190FF20087008788DF800009DF8B2
:103CD00000009DF8002000F0F000904207D0502036
:103CE00080F31188BFF34F8FBFF36F8FFEE79DF80E
:103CF00000001A4C00F0500020700720A06005E082
:103D00009DF8002052008DF80020401E9DF80020F4
:103D10001206F5D4A060032807D0502080F3118844
:103D2000BFF34F8FBFF36F8FFEE74FF44070A0607B
:103D3000019808700A48016841F470010160016847
:103D400041F070410160FFF715FF00206060FCF753
:103D500083FA00201CBD000000E400E07800002091
:103D600020ED00E02DE9FF5F8346DDE90E879946EF
:103D700016468A469000FFF7C7FD05001CD0542068
:103D8000FFF7C2FD040014D00020256384F8510021
:103D9000CDE90240CDE900874B46324651465846B0
:103DA000FFF71CFD2046FFF741FC012004B0BDE8F1
:103DB000F09F2846FFF7ACFE4FF0FF30F6E7F0B576
:103DC00085B0DDE90B640A9DA6B1DCB154270097EC
:103DD0002663022684F85160002604AFCDE902462E
:103DE000CDE90057FFF7FAFC2046FFF71FFC0498C7
:103DF00005B0F0BD502080F31188BFF34F8FBFF3A3
:103E00006F8FFEE7502080F31188BFF34F8FBFF311
:103E10006F8FFEE72DE9F0412F4C0026206B28B173
:103E2000A069401CA0613046BDE8F081E5686D1CCA
:103E3000E56013D1606B006838B1502080F31188C1
:103E4000BFF34F8FBFF36F8FFEE7606BA16B6163B2
:103E5000A063206A401C2062FFF732FDA06ADFF8F1
:103E60007C80854209D3606B0068A0B1606BC0683C
:103E7000C7687868854211D2A0622068C06A00EBEA
:103E8000800158F82100012800D90126E0690028A6
:103E9000C9D00126C7E74FF0FF30EDE7381DFFF727
:103EA000B3FDB86A18B107F11800FFF7ADFDF96A64
:103EB0000120226988401043206101EB810108EB59
:103EC0008100391DFFF7E4FDF86A2168C96A88425C
:103ED000C9D30126C7E700001C000020CC04002045
:103EE0002DE9F0472C4D00242746286B38B1FFF709
:103EF000DBFD286B401E2863286B40B146E0502054
:103F000080F31188BFF34F8FBFF36F8FFEE7A9686F
:103F1000224E0120D1B3A6F1B40980463068E8B141
:103F2000F068C46804F11800FFF76EFD201DFFF76C
:103F30006BFDE06A2A6908FA00F11143296100EB80
:103F4000800109EB8100211DFFF7A2FDE06A2968CD
:103F5000C96A8842E2D3C5F81C80DFE70CB1FFF7DD
:103F6000AFFCAC6944B14646FFF754FF00B1EE61C7
:103F7000641EF9D10020A861E86938B10849012719
:103F800038070860BFF34F8FBFF36F8FFFF7ACFDAB
:103F90003846BDE8F08700001C00002080050020A6
:103FA00004ED00E010B500290AD00878002807D0F9
:103FB00005487844FDF764FA002801D0002010BDC0
:103FC0000248784410BD0000BE010000B6010000A8
:103FD00010B500290AD00878002807D00548784491
:103FE000FDF74EFA002801D0002010BD02487844A9
:103FF00010BD0000AE010000A6010000FCF74DBEA0
:10400000FCF782BF484100080531000800000000AD
:104010000000000080000000000000000000000020
:10402000010202030405060708090A0B0C0D0E0F16
:104030001010000000000000000001020304060749
:104040000809000000000102030400000000000055
:1040500000000000303132333435363738394142D0
:1040600043444546403058003031323334353637DA
:104070003839616263646566403078000400000886
:10408000000000000000000200010000103031328A
:104090003334353637383961626364656678700069
:1040A000303132333435363738394142434445466E
:1040B0005850000002400000000000A00000000076
:1040C00005400000000000C8000000000C40000097
:1040D0000000409C00000000194000000020BCBE11
:1040E0000000000034400000BFC91B8E0000000427
:1040F000B5400000504BCFD06607E2CF0100000072
:104100006C4100003E8251AADFEEA734010000009E
:10411000D9420000DCB5A0E23A301F97FFFFFFFF55
:10412000B4450000FD25A0C8E9A3C14FFFFFFFFF74
:10413000FF3F00000000008000000000FF3F000083
:1041400000000080000000005461736B30310000FB
:104150009C420008000000208400000028010008A4
:1041600020430008840000209C1700004401000840
:104170001C00000043000000F8FFFFFF0C000000DF
:104180000E0000000F0000002E00000010010000D3
:1041900043000000F8FFFFFF004040404040404027
:1041A000404041414141414040404040404040400A
:1041B00040404040404040404005020202020202AE
:1041C00002020202020202020220202020202020FD
:1041D0002020200202020202020290909090909011
:1041E00010101010101010101010101010101010CF
:1041F0001010101002020202020288888888888843
:10420000080808080808080808080808080808082E
:104210000808080802020202400000000000000036
:10422000000000000000000000000000000000008E
:10423000000000000000000000000000000000007E
:10424000000000000000000000000000000000006E
:10425000000000000000000000000000000000005E
:10426000000000000000000000000000000000004E
:10427000000000000000000000000000000000003E
:10428000000000000000000000000000000000002E
:10429000000000000000000000000000000000001E
:1042A00000000000000000000100000010000000FD
:1042B0000000000000127A00000000000000000072
:1042C00000000000000000000000000000000000EE
:1042D00000000000000000000000000000000000DE
:1042E00000000000000000000000000000000000CE
:1042F00000000000000000000000000000000000BE
:1043000000000000000000000000000000000000AD
:104310000000000000000000AAAAAAAA00000000F5
:04000005080000ED02
:00000001FF
