:020000040800F2
:10000000D84F0020CD020008DB3F0008E13900088E
:10001000D93F0008691D0008BD4E0008000000001F
:100020000000000000000000000000003502000891
:100030006B1D00080000000079020008914A0008CA
:10004000E7020008E7020008E7020008E7020008EC
:10005000E7020008E7020008E7020008E7020008DC
:10006000E7020008E7020008E7020008E7020008CC
:10007000E7020008E7020008E7020008E7020008BC
:10008000E7020008E7020008E7020008E7020008AC
:10009000E7020008E7020008E7020008E70200089C
:1000A000E7020008E7020008E7020008E70200088C
:1000B000E7020008E70200081D4B0008E7020008FD
:1000C000E7020008E7020008E7020008E70200086C
:1000D000E7020008E7020008E7020008E70200085C
:1000E000E7020008E7020008E702000800F002F853
:1000F00000F090F80AA090E8000C82448344AAF132
:100100000107DA4501D100F085F8AFF2090EBAE82F
:100110000F0013F0010F18BFFB1A43F0010318473B
:10012000608B0000808B0000103A24BF78C878C133
:10013000FAD8520724BF30C830C144BF04680C60ED
:10014000704700000023002400250026103A28BF35
:1001500078C1FBD8520728BF30C148BF0B60704739
:100160006E2900F07F83702900F0D986662908F097
:100170001480652908F01180672908F00E80612934
:1001800008F00D8003681B0A28BF41F0800169292F
:1001900000F01481642900F01181752900F00E81AE
:1001A0006F2900F06686782900F0A586E92900F01D
:1001B0000186E42900F0FE85F52900F0FB85EF2992
:1001C00000F06386F82900F0A4860368DB0928BFE5
:1001D00041F08001632901F0BF80732901F0C480E0
:1001E000E32901F0CF80F32901F0D480002070478B
:1001F0001FB500F09FFE04000020002107F04AFE1A
:10020000401C60600020002107F02EFEE0601FBD52
:1002100010B510BD01F058F91146FFF7E9FF06F0DF
:1002200019F801F07FF903B4FFF7F2FF03BC01F006
:10023000C3F90000224B19680868B0E8F00F80F39A
:100240000988BFF36F8F4FF0000080F311884EF0E4
:100250000D0E70470000000006480068006880F33B
:10026000088862B661B6BFF34F8FBFF36F8F00DFB0
:1002700000BF00BF08ED00E0EFF30980BFF36F8F10
:100280000F4B1A6820E9F00F106008B54FF05000CE
:1002900080F31188BFF34F8FBFF36F8F07F068F8BB
:1002A0004FF0000080F31188BDE808401968086825
:1002B000B0E8F00F80F30988BFF36F8F704700BF7D
:1002C0004C000020EFF3058070470000094880478C
:1002D00009480047FEE7FEE7FEE7FEE7FEE7FEE728
:1002E000FEE7FEE7FEE7FEE704480549054A064B40
:1002F000704700001B4B0008ED000008D8490020A3
:10030000D84F0020D84B0020D84B00207CB51D468C
:1003100016460C00009001D02044401E074B7B4441
:100320002A4669460190304600F0C5FC05461CB1DE
:100330000020694600F0D2FC28467CBDC5090000BB
:100340000FB41CB5084B06AA7B446946009005987B
:1003500000F0B1FC04460020694600F0BFFC2046D6
:100360001CBC5DF814FB00009109000070B5044648
:1003700085690068C10601D5302600E02026C00747
:1003800007D070BDD4E9012130469047206A401C57
:1003900020626D1EF6D570BD70B504468569007883
:1003A000C00707D170BDD4E9012120209047206A01
:1003B000401C20626D1EF6D570BD00002DE9F04195
:1003C0000646002410687529314616A510D000F0A5
:1003D000B5F9002802DA404213A507E031688A0720
:1003E00001D512A502E0490704D511A5012401E0B9
:1003F00000F0ADF900210A2206F1240709E0B0FB64
:10040000F2FCB0FBF2F302FB1C00303078541846CB
:10041000491C0028F3D123462A463046BDE8F04166
:1004200000F0C7B9000000002D0000002B00000004
:10043000200000002DE9F05F894604464FF0000AD5
:10044000DFF874B1FB44C0F820A02046E16888477B
:10045000002874D0252806D0D4E901219047206ACD
:10046000401C2062F1E700265F462046E16888478D
:100470002028054607DB312D05D2781910F8200C0D
:1004800008B10643F1E7B00701D526F00406C4F829
:100490001CA00027C4F818A02A2D09D0284604F073
:1004A00032FD38B304EB8708303DC8F8185019E026
:1004B00059F8041B204604EB87029161E1688847E4
:1004C000012F054618D1E069002820DA26F0200621
:1004D0001DE0D8F8180000EB800005EB4000303834
:1004E000C8F818002046E1688847054604F00BFD6F
:1004F0000028EED1012F0AD02E2D08D12046E16828
:1005000088477F1C0546022F46F02006C4DBA06901
:10051000002803DA404246F00106A061F00701D04E
:1005200026F010066C2D0BD0682D09D04C2D39D03B
:100530006A2D35D0742D35D07A2D33D016E038E0C1
:10054000E1682F4620468847B842054609D16C2FFE
:1005500026D04FF48060E168064320468847054670
:1005600004E06C2F1AD04FF4807006430DB3A5F150
:100570004100192802D8203546F400664A4629462B
:10058000204626604E46FFF7EBFD80B101280BD0D8
:10059000F61D26F0070000F1080956E74020E4E7C1
:1005A0008020D8E70020D6E706F104094DE7284669
:1005B00052E7206ABDE8F09F2287000010B5431C77
:1005C00002E010F8011B71B18107FAD14FF001323E
:1005D00002C88C1A8C4314EAC211F9D0C01A0A0658
:1005E00003D0C01E10BDC01A10BD0A0401D0801E69
:1005F00010BD0902FCD0401E10BD032A40F230801D
:1006000010F0030C00F0158011F8013BBCF1020F53
:10061000624498BF11F801CB00F8013B38BF11F8D4
:10062000013BA2F1040298BF00F801CB38BF00F8EB
:10063000013B11F0030300F02580083AC0F0088068
:1006400051F8043B083A51F804CBA0E80810F5E74C
:10065000121D5CBF51F8043B40F8043BAFF300802F
:10066000D20724BF11F8013B11F801CB48BF11F8A4
:10067000012B24BF00F8013B00F801CB48BF00F874
:10068000012B704710B5203AC0F00B80B1E818502C
:10069000203AA0E81850B1E81850A0E81850BFF46C
:1006A000F5AF5FEA027C24BFB1E81850A0E818500B
:1006B00044BF18C918C0BDE810405FEA827C24BF5F
:1006C00051F8043B40F8043B08BF7047D20728BFED
:1006D00031F8023B48BF11F8012B28BF20F8023B3C
:1006E00048BF00F8012B70474FF0000200B51346D9
:1006F00094469646203922BFA0E80C50A0E80C5042
:10070000B1F12001BFF4F7AF090728BFA0E80C50F2
:1007100048BF0CC05DF804EB890028BF40F8042BEB
:1007200008BF704748BF20F8022B11F0804F18BF58
:1007300000F8012B704770477047704709684A05F9
:1007400001D540B27047C905FCD500B270470968B1
:100750004A0501D5C0B27047C905FCD580B27047C3
:1007600070B50C460546012A05D02878800600D5CC
:10077000EA69002302E0012305E05B1C934202D2F8
:10078000E05C0028F9D1A869E618C01AA861286AB7
:10079000184428622846FFF7E9FD04E0D5E9012165
:1007A00014F8010B9047B442F8D32846FFF7F4FD44
:1007B00070BD2DE9F0470D4699469246044600F17A
:1007C00024080168880604D5E06921F01001216041
:1007D00000E00120A84201DD471B00E00027A169DD
:1007E0007A1902EB0900081AA0612078C00602D429
:1007F0002046FFF7BBFD002608E0D4E901211AF8E6
:1008000006009047206A401C761C20624E45F4DBAF
:100810002078C0060AD52046FFF7A8FD06E0D4E9F7
:10082000012130209047206A401C2062381EA7F129
:100830000107F4DC07E0D4E9012118F8050090472E
:10084000206A401C2062281EA5F10105F3DC204629
:10085000FFF7A2FD2078000602D50220BDE8F08750
:100860000120FBE711680268006A530501D5087092
:100870000AE0D30501D5088006E0130603D5C217A8
:10088000C1E9000200E008600120704770472DE9CF
:10089000FF4F0C461E464FF0FF378BB0D2E90001E8
:1008A000DDF860800A908A46C1F30A5505B93D46D5
:1008B000002108464FF00000BAF1000F00F440009C
:1008C00005DA00EB80004FF4400101EA50004FEAE6
:1008D0009059B9F1010F00DDB9460A9850EA4A0073
:1008E0000ED044F61050A5F2FF3545432F14B8F151
:1008F000000F1ED07542291E1EDDC9F100021CE04A
:10090000B8F1010F4FF0000001D0302103E0F243B5
:1009100005E02154401CB042FBDB304600220021A0
:1009200021540B99C1F80880C1E900200FB0BDE83F
:10093000F08FBD1B6D1CDEE74A4600DA694206A84F
:1009400000F02CFD06AB93E8070003AB83E807003B
:1009500050460A9900F037FE8DE80700A0F50050D8
:100960001F3800900398002D0ADD42F21F014A460D
:100970000844002303A90390684601F0A0F809E0A9
:10098000A0F500504A461F38002303A9039068468B
:1009900001F0AAF88DE807000004000C03D04FF026
:1009A000FF30410800E01046B8F1000F03D00022EC
:1009B000009215461EE0751E05D400F0BFFA3032D5
:1009C00062556D1EF9D5B3460122084302D00022BC
:1009D0007F1C04E02078302801D100227F1E002AED
:1009E000099784D01DE0112D07DA00F0A7FA303204
:1009F00062556D1C50EA0102F5D1084302D00098FF
:100A0000C8B10EE00021681E05E0235C625C6354FF
:100A10002254401E491C8142F7DBAB46A81B401EF6
:100A20000990002004F80B000B98099AC0F8088080
:100A3000C0E9002B7AE711264FF0000857E72DE9AF
:100A4000F04F88460446D21D22F0070191B0D1E94B
:100A50000001CDE90A0104F032FA02460B98C00FFA
:100A600001D02D2007E02068810701D52B2002E06E
:100A7000202101EAC000032A099001D0072A05DBE2
:100A800003464146204600F01DFC0BE1207880061D
:100A900001D5E06900E00620B8F1650F814606D077
:100AA000B8F1660F18D0B8F1670F70D131E00020AF
:100AB000B9F1110F009001DB112301E009F10103ED
:100AC0000AAA01A90CA8FFF7E2FEDDE90C700026D6
:100AD00009F10105834647E001204B4600904FF0A5
:100AE00000470AAA01A90CA8FFF7D1FEDDE90DB065
:100AF0000C995D46002610B909F101000D18B9EBFB
:100B0000050003D4C0F1FF3609F10105A5EB09008A
:100B10002BE0B9F1010F01DA4FF001090020B9F122
:100B2000110F0090484601DD112300E003460AAA98
:100B300001A90CA8FFF7ABFEDDE90C704D460026BD
:100B40008346207800070AD4AB4500DA5D4601A849
:100B5000012D04DD411911F8011C302907D04F4542
:100B600002DA17F1040F04DA012082460FE06D1E4D
:100B7000EEE7002F02DCED1B3E4403E0781CA842A8
:100B800000DD7D1CB81B00F1010A4FF00047207802
:100B9000000703D4AA4501DB4FF0FF3A0021B7F16B
:100BA000004F0DF143088DF8431024D002202B2371
:100BB000002F01DA7F422D230A21021EA0F101003D
:100BC00000DC5FB197FBF1FC97FBF1F201FB1C7CB1
:100BD00017460CF1300C08F801CDEEE7A8F1010042
:100BE00003702188090501D5452100E06521A0F1A8
:100BF000010800F8011C09980FA9A1EB0807FF1DC7
:100C000000B10120411901EBEA70A1693844081ACA
:100C1000401EA0612078C00602D42046FFF7A6FB44
:100C2000099828B1D4E901219047206A401C20622C
:100C30002078C00622D52046FFF798FB1EE0002E44
:100C400004DBB34502DD01A8805D00E03020D4E97B
:100C500001219047206A401C2062761CAAF1010005
:100C60005FEA000A0AD100F065F9C0680168405CDB
:100C7000D4E901219047206A401C2062281EA5F17A
:100C80000105DCDC07E0D4E9012118F8010B9047ED
:100C9000206A401C2062381EA7F10107F3DC2046C1
:100CA000FFF77AFB032011B041E6000001694A1CFE
:100CB00002610878704700B58FB0CDE9013100219D
:100CC000059105497944CDE9031011466846FFF7BF
:100CD000B1FB0FB000BD0000E5FFFFFF0A6802F89E
:100CE000010B0A607047D1E900239A4202D2531CDB
:100CF0000B601070704700002DE9FF5F15468A46B3
:100D00000446DFF8AC80F8440027D8E900103E46DE
:100D1000CDE9001010E03AF816106A4602A800F07B
:100D2000AFFB411C07D02178890603D5E269391849
:100D300091420DD80744761C2078800602D5E069E0
:100D4000B84205DDAE42E6DB3AF816000028E2D1F3
:100D5000A069C01BA0612046FFF708FBD8E900107E
:100D6000CDE90010002017E03AF818106A4602A8F2
:100D700000F086FBB0F1FF3F81460BD000250DF15E
:100D8000080B05E0D4E901211BF8050090476D1C14
:100D90004D45F7D308F10100B0428046E4DB206AFC
:100DA000384420622046FFF7F7FABDE8FF9F0000B5
:100DB000727E00002DE9F0418046D21D22F007022C
:100DC0000025D2E90002F52915A614D0011E72F102
:100DD000000106DA0023D0EB030063EB020211A648
:100DE00008E0D8F800108B0701D50FA602E04907EC
:100DF00001D50EA601251146002408F1240704E0C0
:100E000000F09CF830323A55641C50EA0102F7D1E8
:100E10002B46324621464046BDE8F041FFF7C9BCAB
:100E2000000000002D0000002B000000200000004A
:100E300030B4002100F1240408E002F00705D208D4
:100E4000303542EA4372DB086554491C52EA030517
:100E5000F3D10468002310A2250707D5A40600D407
:100E600021B1C46901230DA2641EC46130BCFFF727
:100E7000A0BC10B5044621461068FFF768FC024686
:100E80002046BDE810400023D2E7D21D22F0070122
:100E9000D1E90023CCE70000000000003000000092
:100EA000F0B40D460188090502D5214C7C4402E0CE
:100EB0001F4C7C440E34002100F1240608E002F0AF
:100EC0000F071209E75D42EA03721B097754491CB8
:100ED00052EA0307F3D102780023120704D5702DDC
:100EE00006D009B1022311342246F0BCFFF761BCE1
:100EF00001231034F8E770B504460D46214610680A
:100F0000FFF725FC024629462046BDE87040002335
:100F1000C6E7D21D22F00703D3E90023C0E7036828
:100F2000126843F0200303600823C3610023B7E77E
:100F3000D47C0000004870479849002030B5B0F1DB
:100F40000A024FEA900E71F100034EEA817EB0EB87
:100F50000E0061EB91014FEA101E4EEA017E10EB8C
:100F60000E0041EB11114FEA102E4EEA016E10EB0C
:100F70000E0041EB11214FEA104E4EEA014E10EBEC
:100F80000E0041EB1141401841F100014FEAD00041
:100F900040EA41704FEAD10110EB80054FEA81042D
:100FA00044EA907444EB01046D1944EB0404521BB1
:100FB000A3414FF0000348BF0A3200D530BD401CAA
:100FC00041F1000130BD00002DE9F04F04460D460F
:100FD000D21D22F0070089B0D0E900974846394673
:100FE00003F06DFF0246F80F01D02D2307E02068C3
:100FF000810701D52B2302E0202101EAC0038DF8EF
:1010000020300BB1012000E00020032A824601D0ED
:10101000072A04DB2946204600F054F93FE12078F6
:10102000800601D40D2500E0E569C7F30A560D2DB1
:1010300049DA00214FEA175B08464FF00000002F05
:1010400000F4400007DA00EB80004FF4400100EBB1
:10105000D07001EA60008115012901DD4FF0FF31F8
:1010600000224FEA850CBCF1180F06D31346ACF1F1
:1010700018004FF08052C24003E04FF4801323FA6F
:101080000CF30CF10C0CBCF1200F04D3ACF1200CD0
:1010900009FA0CF001E007FA0CF000294FF00048C3
:1010A00001DD18B90FE00ED140450CD319EB020950
:1010B0005F4121B9404502D19F4329EA0209BBEBB8
:1010C000175F00D0761C2088000502D57B48784445
:1010D00002E07A487844193808AA302302F80A3026
:1010E000037C0AF10101002E0AF1020A53546A46F8
:1010F00002DC4FF0300101E04FF031014FF0010808
:101100008DF8001002D0A6F2FF3603E059EA47013D
:1011100000D06B4E002D02DC2178090704D54FF07A
:1011200002082E218DF80110C44600210BE0C7F300
:1011300003433F01C35C491C6D1E02F808300529BA
:1011400008F1010801DA002DF1DC00210CE000EBD0
:101150001973491C1B786D1E082902F808304FEAE4
:10116000091908F1010801DA002DF0DC21688B066D
:1011700002D516E0A8F10108E04505DD02EB080301
:1011800013F8013C302BF5D0B8F1000F09DD02EB6C
:10119000080313F8013C2E2B03D1090701D4A8F151
:1011A0000108002D05DD3E2102F808106D1E08F132
:1011B0000108407C002E02F8080008F1010804DA5A
:1011C0002D20764202F8080002E02B2002F80800E9
:1011D0000A214FF47A70864208F101080BDB96FB76
:1011E000F0F3303302F8083096FBF0F308F1010811
:1011F00000FB136601E0642E0CDB642096FBF0F329
:10120000303302F8083096FBF0F308F1010800FBD8
:10121000136601E00A2E06DB96FBF1F0303002F88F
:10122000080008F1010896FBF1F001FB1060303076
:1012300002F80800A16908F1010808EB050202EBB9
:101240000A00081AA0612078C00602D42046FFF7E1
:101250008DF8216A08AE01EB0A00206204E0D4E9AF
:10126000012116F8010B9047BAF1010AF7D2207854
:10127000C00602D52046FFF779F86E4609E016F859
:10128000010B3E280FD0D4E901219047206A401C71
:101290002062B8F10108F2D22046FFF77DF809B0CC
:1012A0000320BDE8F08F206A2844206203E0D4E9DF
:1012B0000121302090476D1EEBD3F8E7ED7A000056
:1012C00002FCFFFF2DE9F0411F460446032601689A
:1012D000072A01F4006004DB08B116A505E016A595
:1012E00003E008B115A500E015A521F0100020606D
:1012F000A069C01EA0610FB1401EA0612046FFF78B
:1013000035F84FB1D4E9012138469047206A401C96
:101310002062C01C206206E0206AFAE7D4E90121BD
:1013200015F8010B9047761EF8D22046FFF734F8E7
:10133000BDE8F0814E414E006E616E00494E4600A0
:10134000696E660010B5436913B1AFF3008001E028
:10135000FFF706FA012010BD127800F124010A708F
:1013600000224A700122EDE711684FF0FF32E9E7F1
:1013700010B5436913B1AFF3008001E0FFF7BCFC87
:10138000012010BD128800F1240182840022C28451
:101390000122EDE711684FF0FF32E9E72DE9F04750
:1013A000814616468AB0354878440DC88DE80D0050
:1013B00032487844801C03AC0DC884E80D0041F627
:1013C0009B300844372190FBF1F290FBF1F5A5F139
:1013D000800501FB12041B3C02D56442012000E0A1
:1013E0000020DFF898A080460027FA44AAF1BE0A40
:1013F0000EE0E0070AD03246684607EB47010123BA
:101400000AEB810100F070FB8DE8070064107F1C7F
:10141000002CEED1194F7F44AE3F19E0E80715D0FC
:1014200007EB04100DF1180A90E80E008AE80E0090
:10143000C068F04201D1981908903246012306A9EC
:1014400003A800F051FB03AB83E807006D10641C98
:10145000002DE3D14FF0010332466946B8F1000F89
:1014600003A802D000F02BFB01E000F03DFBC9E92E
:101470000001C9F808200AB0BDE8F087A478000090
:1014800070B516460C46054600F044F8036893F81C
:101490000101012806D0FF2C0FD8185D68B101208A
:1014A0002C7070BDD3F807013246214603F20713B2
:1014B00003442846BDE8704018474FF0FF3070BD28
:1014C00000487047784900207546FFF7F9FFAE469F
:1014D00005006946534620F00700854618B020B540
:1014E000FEF702FFBDE820404FF000064FF0000776
:1014F0004FF000084FF0000B21F00701AC46ACE8BC
:10150000C009ACE8C009ACE8C009ACE8C0098D4628
:101510007047000010B5FFF70DFD001D10BD00BFA6
:101520007569000010B50446AFF300802046BDE8A1
:101530001040FEF778BE00004FF0013C50F8042B3D
:1015400051F8043B9A4221D1A2EB0C03934313EAD6
:10155000CC1317D150F8042B51F8043B9A4215D103
:10156000A2EB0C03934313EACC130BD150F8042BDA
:1015700051F8043B9A4209D1A2EB0C03934313EABE
:10158000CC13DBD04FF00000704700BFD01A01BA77
:10159000B1FA81F101F0180122FA01F0CB40C1F15A
:1015A0002001DBB2C0B2C01A2CFA01F3D11A914368
:1015B00011EAC311E6D1704701491820ABBEFEE71E
:1015C0002600020070475FEA400C08BF91F0000F50
:1015D0004FEA8C234FEAC12243EA51514FEA1C5093
:1015E00018BF00F5F0404FEA300018BF41F000414D
:1015F0005FEA6C5C00F02980BCF1FF3F08BF40F05F
:1016000080407047130C06BF12044FF0100C4FF0CF
:10161000000C130E04BF12020CF1080C130F04BFD0
:1016200012010CF1040C930F04BF92000CF1020C98
:10163000D30F04BF52000CF1010C11464FF0000211
:10164000A0F11F00A0EB0C00704711F0004F08BF85
:10165000704731F000413FF4D5AF0B0C06BF0904D1
:101660004FF0100C4FF0000C0B0E04BF09020CF1F0
:10167000080C0B0F04BF09010CF1040C8B0F04BF05
:1016800089000CF1020CCB0F04BF49000CF1010CD6
:10169000CCF12003A0EB0C0022FA03F302FA0CF2C7
:1016A00041EA030100F10100704720F07F4C80EA1D
:1016B000030023F07F47ACEB070303F57C5300F0F6
:1016C000004003F1FF032DE980494FEA154B09B4AF
:1016D0004FEA144325EA0B4E24EA03480FF204268E
:1016E00006EB132749083E785FEA320203FB0667E0
:1016F000C7F5000707FB06F64FEA54374FEAD64610
:1017000006F1020607FB066CCCF1005C4FEA1C47B1
:101710002CEA074C07FB06F40CFB06F504EB154618
:101720004FEA961634BF00204FF000404FEAD13701
:1017300006FB07FC4FEA1C4C0CFB0BF7D21B03FB10
:101740000CF761EB07010CFB0EF7B0EB074072EBF7
:1017500017420CFB08F734BFA2EB0742B2EB07427B
:1017600061EB17414FEA0C444FEA910706FB07FC77
:101770004FEA1C4C0CFB0BF7B0EBC74072EB573237
:1017800003FB0CF734BFA2EBC742B2EBC74261EBDD
:1017900057310CFB0EF7B0EBC70072EB57720CFB26
:1017A00008F734BFA2EBC702B2EBC70261EB577177
:1017B000039F4FEA816141EA921104EBCC044FEAA6
:1017C000D1374FEA826206FB07FC42EA90124FEAE9
:1017D00080604FEA1C4C0CFB0BF7D21B03FB0CF791
:1017E00061EB07010CFB0EF7B0EB074072EB174201
:1017F0000CFB08F734BFA2EB0742B2EB074261EBE8
:1018000017414FEA8C554FEA910704EB9C2406FBE5
:1018100007FC4FEA1C4C0CFB0BF7B0EBC74072EB1C
:10182000573203FB0CF734BFA2EBC742B2EBC742FF
:1018300061EB57310CFB0EF7B0EBC70072EB577240
:101840000CFB08F734BFA2EBC702B2EBC70261EB97
:10185000577115EB4C254FEA816141EA92114FEA2D
:1018600082624FEAD13742EA901206FB07FC44F14C
:1018700000044FEA80604FEA1C4C0CFB0BF7D21BB4
:1018800003FB0CF761EB07010CFB0EF7B0EB074015
:1018900072EB17420CFB08F734BFA2EB0742B2EB26
:1018A000074261EB174115EB1C154FEA813141EA04
:1018B00092414FEA823242EA90424FEA80304FEA48
:1018C0000C7644F1000448EA03434EEA0B484FF01B
:1018D000000EB2EB080C71EB030724BF62463946D9
:1018E0004EEB0E0E4FF0000B0018524149414BEBEE
:1018F0000B0BB2EB080C71EB03077BF1000B24BF61
:10190000624639464EEB0E0E4FF0000B0018524166
:1019100049414BEB0B0BB2EB080C71EB03077BF16E
:10192000000B24BF624639464EEB0E0E51EA020709
:1019300018BF46F0010616EB0E7655F1000254F181
:10194000000103D5BDE88901BDE80088BDE8890133
:10195000BDE80048B619524141EB0101A3F1010372
:10196000704780807F7E7D7C7B7A7978777676750C
:101970007473727171706F6E6E6D6C6C6B6A6A6984
:101980006868676666656464636362616160605F1E
:101990005F5E5E5D5D5C5C5B5B5A5A595958585797
:1019A00057565655555554545353525252515150FF
:1019B00050504F4F4F4E4E4D4D4D4C4C4C4B4B4B52
:1019C0004A4A4A4949494848484747474746464698
:1019D00045454544444444434343434242424241D3
:1019E0004141002B9C4630D477002BD01CB54FEAE8
:1019F000370703B44FF010004FF01001BAF1000F99
:101A000006D0BCF1000FDCBF40F0080040F0080138
:101A10004FF000000FBCBDE810400BF1010BBBF113
:101A2000010F08BF5FEA170722BF12F1010211F18F
:101A300001014FF0004143F1000300F0004043EA90
:101A400000007047F9D35708D0E746EA064613F17D
:101A5000400F4FEA16461FDD13F1200FDFBF16437C
:101A60000A46002120335B42BED0C3F1200746EA7C
:101A7000064602FA07F74FEA164646EA0706C3F19A
:101A8000200722FA03F201FA07F721FA03F14FF0D7
:101A9000000342EA0702A7E746EA020646EA0646CC
:101AA0004FEA164646EA0106BCBF46EA0646360C31
:101AB0004FF000034FF000024FF0000194E72DE9D2
:101AC000804C9A46934670B491E8380007C831EAD2
:101AD000400C48BF34EA430C03D5FFF7E6FDFFF79F
:101AE00080FFF0BCBDE8008C2DE9804C9A469346FF
:101AF00070B491E8380007C810F0804F08BF13F0A9
:101B0000804F03D100F005F8FFF76BFFF0BCBDE894
:101B1000008C20F07F4780EA030023F07F4C07EB26
:101B20000C03A3F57C5300F00040A3F1FE0392F0F8
:101B3000000F00F0B38095F0000F00F077802DE9E2
:101B400001494FEA11404FEA144621EA004800FBE0
:101B500006FC24EA064708FB06F607FB08F800FB2C
:101B600007F718EB06484CEB164C4FEA124B18EBF4
:101B700007484FEA15464CEB174022EA0B4E0BFB89
:101B800006FC25EA06470EFB06F607FB0EFE0BFBDE
:101B900007F71EEB064E4CEB164C4FF000061EEB03
:101BA000074E4CEB174B18EB0B0840F1000018EBFD
:101BB0000E0B58EB000840F100008F1A4FF00001A7
:101BC0003CBFC943661B14BFB5EB040C00213CBFEE
:101BD000C943F61B4FEA17444EEA8E0E27EA044526
:101BE0004FEA1C4704FB07622CEA074C05FB07F78A
:101BF0000CFB05F604FB0CFC16EB074642EB174208
:101C000016EB0C4642EB1C421BEB060658EB02029D
:101C1000414146EA9E0601D5BDE80189B619524107
:101C200041EB0101A3F10103BDE801894FEA14452D
:101C30004FEA114724EA054621EA074C05FB07F461
:101C400006FB07F70CFB06F105FB0CFC11EB07414B
:101C500044EB17444FEA124711EB0C4144EB1C4490
:101C600022EA074C05FB07F206FB07F70CFB06F61A
:101C700005FB0CFC16EB074642EB174216EB0C4635
:101C800042EB1C456A1854F1000148BF7047B61971
:101C9000524141EB0101A3F10103704795F0000FA0
:101CA00037D04FEA11424FEA144721EA024624EAAC
:101CB000074C02FB07F106FB07F70CFB06F402FBDF
:101CC0000CFC14EB074441EB17414FEA154714EBAA
:101CD0000C4441EB1C4125EA074C02FB07F506FBCF
:101CE00007F70CFB06F602FB0CFC16EB074645EB70
:101CF000174516EB0C4645EB1C42121951F1000139
:101D000048BF7047B619524141EB0101A3F10103ED
:101D100070474FEA14454FEA114724EA054621EA85
:101D2000074C05FB07F106FB07F70CFB06F24FF02B
:101D3000000605FB0CFC12EB074241EB174112EBCE
:101D40000C4251EB1C4148BF7047921841EB010116
:101D5000A3F10103704700F00F01000900EB8000C0
:101D600001EB4000C0B27047FEE77047002200F070
:101D700001B8000030B50E4B054601205C7A012CFD
:101D800015D8587A00241C54587A03EB800045601B
:101D90005D7A03F108002A54587A421C5A72303096
:101DA00008703A2048702F208870CC70002030BD19
:101DB0006C49002010B590F820300268012B07D044
:101DC000022B05D0416A41F480214162012010BDFF
:101DD000D2F8000240F00100C2F80002087D00F0D5
:101DE0001F0301209840D2F81C328343C2F81C32F2
:101DF000CB69B3B9D2F80C328343C2F80C328C8968
:101E00004B6864F31F434C6902EBC404C4F84032CE
:101E10000C890B6864F31F434C6902EBC404C4F8DB
:101E20004432CB69012B16D1D2F80C320343C2F8ED
:101E30000C320C884B6864F31F434C6902EBC404FA
:101E4000C4F840320C89CB6864F31F434C6902EB41
:101E5000C404C4F844328B69002BD2F804320FD08A
:101E600053EA0003C2F804320B69002BD2F8143293
:101E700008D00343C2F81432096A012904D008E0EB
:101E80008343EFE78343F5E7D2F81C120143C2F81E
:101E90001C12D2F8000220F00100C2F8000200205B
:101EA00010BD00000246002092F82030012B01D026
:101EB000022B05D1106821B1D0F8100000F003000A
:101EC0007047C068FAE770B590F82040012C05D043
:101ED000022C03D0416A41F4802128E0046809B350
:101EE0002469A40720D04FF4D874056804EB0114CA
:101EF0002D5915F00405956005682D591AD0ED0887
:101F0000556005682C5904F00204D4604FF4DA746B
:101F1000056804EB01142E5906F00F06082E0CD3A9
:101F200008250DE0E468DCE7416A41F400114162F4
:101F3000012070BD6D0D1560E3E72D5905F00F050B
:101F4000156105682D59C5F30725956105682C595C
:101F5000240C54614FF4DC72046802EB0112A458A3
:101F60001C700468A458240A5C700468A458240CEB
:101F70009C700468A258120EDA704FF4DE72046886
:101F800002EB0112A4581C710468A458240A5C7165
:101F90000468A458240C9C710468A258120EDA71CB
:101FA000006829B1016941F020010161002070BD84
:101FB000C16841F02001C160F8E770B5040003D0AA
:101FC00094F8200010B104E0012070BD204600F01C
:101FD00081F82068016841F00101016000F0ECF92E
:101FE0000546052604E000F0E7F9401B0A2811D851
:101FF00020684068C007F6D02068016821F002011F
:10200000016000F0D9F905460BE000F0D5F9401B5E
:102010000A2806D9606A40F40030606284F82060C3
:10202000D2E7206840688007EFD4207E012820682E
:1020300001683DD021F080010160607E01282068A8
:10204000016838D021F040010160A07E012820689D
:10205000016833D021F020010160E07E0128206872
:1020600001682ED041F010010160207F0128206816
:10207000016829D021F008010160607F01282068F3
:10208000016824D021F004010160D4E90201084371
:10209000D4E90412114308436168491E08432168CA
:1020A000C86100206062012084F82000002070BD1B
:1020B00041F08001C0E741F04001C5E741F0200157
:1020C000CAE721F01001CFE741F00801D4E741F061
:1020D0000401D9E710B586B0002100910191029169
:1020E000039100681349884222D11348C16941F025
:1020F0000071C161C16901F000710491816941F011
:102100000401816180690D4C00F0040004904FF4DB
:10211000006000906946204600F050F8A01400903E
:1021200002200190032003906946204600F046F803
:1021300006B010BD006400400010024000080140DD
:1021400070B5044690F82000012804D0606A40F47D
:102150000020606218E0022084F8200020680168F6
:1021600021F00101016000F027F905460EE000BFF3
:1021700000F022F9401B0A2808D9606A40F40030B8
:102180006062052084F82000012070BD206840684E
:10219000C007EDD1606270BD70B5044600F00CF967
:1021A0000546601C02D004480078044400F004F99D
:1021B000401BA042FAD370BD3C0000202DE9F84F2F
:1021C000DFF8B8910024A9F1040B23460F2709F189
:1021D000040AABF1040EC9E00125A5402A40AA4239
:1021E0007DD1674ED1F804C0ACEB0608B44532D0BF
:1021F00014DCBCF1030F3AD009DCBCF1000F2AD08B
:10220000BCF1010F1CD0BCF1020F31D11DE0BCF1BB
:10221000110F17D0BCF1120F2AD119E0B8F5881FA1
:1022200019D006DCB8F5803F15D0B8F5801F1FD156
:1022300011E0B8F5001F0ED0B8F5041F18D10AE060
:10224000CB6815E0CB681B1D12E0CB6808330FE0AC
:10225000CB680C330CE08B682BB1012B4FF00803DB
:1022600003D0456104E0042302E0056100E000239F
:10227000FF2A01D8064601E000F104064FEA840572
:1022800001D9A5F12005D6F8008007FA05FC28EA57
:102290000C0803FA05F548EA0508C6F800804D6801
:1022A000ED0062D5374DAE6946F00106AE61AD690D
:1022B00024F0030605F001050095334D06EB050CEF
:1022C000DCF80850A607360F07FA06F825EA0805D5
:1022D000DFF8B880404503D14FF0000817E044E034
:1022E000DFF8AC80404502D14FF001080FE0DFF885
:1022F000A480404502D14FF0020808E0DFF8988042
:10230000404502D14FF0030801E04FF0040808FAFD
:1023100006F848EA0508CCF808804D68D9F800604E
:10232000ED024D4601D5164300E096432E604D6800
:10233000DAF80060AD02554601D5164300E0964339
:102340002E604D68DBF80060AD035D4601D5164395
:1023500000E096432E604D68DEF80060ED037546A0
:1023600001D5164300E096432E60641C0D682A4692
:10237000E5407FF431AFBDE8F88F0000080401406C
:102380000000111000100240000001400008014050
:10239000000C01400010014000140140C26821EA15
:1023A00002030A4043EA0241016170470AB1016138
:1023B00070470904FBE7000001488068704700008F
:1023C0003C00002070B5040025D094F83D000025A5
:1023D00020B984F83C50204600F076FA242084F896
:1023E0003D002068016821F001010160206801685A
:1023F00041F4004101602068016821F4004101605E
:1024000000F010FC4D4A6168914201D84C4900E04F
:102410004C49884201D2012070BD4B492368B0FB72
:10242000F1F15E6826F03F060E435E6063689342FA
:1024300006D94FF4967359434FF47A73B1FBF3F115
:102440002368491C1E6A26F03F0631431962616801
:10245000914210D84900401EB0FBF1F2521CC2F369
:102460000B02042A01D2042022E0B0FBF1F0401C50
:10247000C0F30B001CE0A268F2B301EBC10303EB55
:102480000116431EB3FBF6F35B1C43F480431B05AC
:1024900049D092B301EBC10202EB0111401EB0FB27
:1024A000F1F0401CC0F30B0040F4804040F40040C9
:1024B0002168CA694CF6FF739A431043C861D4E996
:1024C000071001432068026822F0C0021143016036
:1024D000D4E9030101432068826848F2FF339A433C
:1024E00011438160D4E9050108432168CA6822F0DC
:1024F000FF021043C86001E00EE016E020680168AA
:1025000041F0010101602564202084F83D0025632D
:1025100084F83E50002070BD01EB4106431EB3FB22
:10252000F6F35B1CB3E70120C2E701EB4101401E5B
:10253000B0FBF1F0401CC0F30B00B7E7A086010030
:1025400080841E0000093D0040420F002DE9F84F35
:102550000025DDF82890984617468A4604460095DF
:10256000FFF72AFF064694F83D0020287AD1192368
:10257000012286492046009601F03AFB0028F5D159
:1025800094F83C0001286DD0012084F83C002068BC
:102590000168C90703D1016841F0010101602068A9
:1025A000016821F400610160222084F83D001020C0
:1025B00084F83E0025646762A4F82A80608D208537
:1025C0007348E06233464A465146204601F020FAFD
:1025D00000287CD1208DDFF8BC81202768B101283C
:1025E00014D00228206801681ED041F48061016087
:1025F0002068416980690090BBE020684169816979
:102600000091016841F400710160B2E02068016846
:1026100021F48061016072B620684169816900918E
:10262000016841F400710AE041F40061016072B692
:102630002068416981690091016821F4806101602D
:1026400062B696E0032865D801280CD002284B46D4
:102650004FF000024146204600960BD001F0C8FA28
:10266000A8BB0CE090E032464946204601F066FBEC
:1026700068BB71E001F0BCFA48BB72B633E0206879
:10268000016821F48061016072B620680069616AA6
:102690000870606A401C6062208D401E2085608D3D
:1026A000401E60853C4846F2A8110068B0FBF1F07E
:1026B000C0EBC00000EB80000090401E009007D0EF
:1026C00020684069C04340070DD50098F5E727E032
:1026D00044F8305F6773A573206940F020002061E3
:1026E00062B625731CE02068016841F40071016046
:1026F00020680069616A0870606A401C6062218D10
:10270000491E2185618D491E618562B6216809696E
:10271000017025E032464946204601F00FFB10B11A
:102720000120BDE8F88F20680069616A0870606A5E
:10273000401C6062208D401E81B22185608D401E4C
:10274000608520684269D243520712D4032903D11D
:10275000016821F48061016020680069616A087085
:10276000606A401C6062208D401E2085608D401E86
:102770006085208D00287FF465AF84F83D7084F873
:102780003E5084F83C50CCE70220CAE7020010001B
:102790000000FFFF04000100480000202DE9F84F71
:1027A0001F4690468A460446DDF82890FFF704FE4F
:1027B000054694F83D0020287FD119230122404985
:1027C0002046009501F014FA002876D194F83C00D8
:1027D000012872D0012084F83C0020680168C907F4
:1027E00003D1016841F0010101602068016821F412
:1027F00000610160212084F83D00102084F83E0033
:1028000000262664C4F824806785608D20852D48C5
:10281000E0622B464A465146204601F06FF990B9D6
:10282000206841698069009036E02A464946204682
:1028300001F0BCFA50B1206C042804D12068016872
:1028400041F4007101600120BDE8F88F606A2168E1
:1028500000780861606A401C6062618D491E618574
:10286000218D491E89B2218522685369DB435B07AC
:102870000BD451B100781061606A401C6062608DB9
:10288000401E6085208D401E20852A4649462046F0
:1028900001F082F90028CED1208D0028C5D154F84E
:1028A0003D0B016841F400710160202004F81E090D
:1028B000E67766770020C7E7FFE70220C4E700005D
:1028C000020010000000FFFF10B586B0002100914B
:1028D00001910291039100680F4988421AD10F4C6F
:1028E000A06940F00800A061A069694600F00800F6
:1028F0000490C0200090122001900320039008480B
:10290000FFF75CFCE06940F40010E061E06900F46E
:102910000010049006B010BD0054004000100240AA
:10292000000C0140024881680278114481607047C0
:102930003C000020074810B5016841F0100101601B
:10294000032000F0A7F80F2000F006F800F050F880
:10295000002010BD0020024030B505461F4887B05A
:10296000C16941F00401C161C06906A900F0040019
:10297000009001A800F036F90498B0B100F052F9C7
:1029800040001749174AB0FBF1F11748491E026091
:10299000416040F2E7320021C0E90321816081619A
:1029A00000F01FFE040003D015E000F03BF9E8E75B
:1029B0000D4800F045FE04000DD11E2000F03CF84B
:1029C000102D07D2002229461E2000F043F80748A8
:1029D000056000E0012407B0204630BD0010024031
:1029E00040420F0000080040DC07002040000020AB
:1029F0000F4808B5816941F001018161816901F0E9
:102A000001010091C16941F08051C161C06900229A
:102A100000F0805000900F21901E00F01BF8054838
:102A2000416821F0E06141F00071416008BD0000A3
:102A30000010024000000140002809DB00F01F02E6
:102A4000012191404009800000F1E020C0F8001110
:102A500070470000F0B40E4B1B680C46C3F3022312
:102A6000C3F10705042D00D90425191D072901D23A
:102A7000002300E0DB1E012606FA05F1491E214075
:102A800099409E40761E16403143F0BC02F02BBAAE
:102A90000CED00E0064900F0070208684FF6FF035E
:102AA000184040EA0220034A1043086070470000C3
:102AB0000CED00E00000FA052DE9F0470F46050097
:102AC00061D0434E306800F00700B84209D2306848
:102AD00020F0070038433060306800F00700B8424B
:102AE00051D128683B4C810712D5400703D5606857
:102AF00040F4E06060602878000703D5606840F427
:102B0000605060606068A96820F0F0000843606071
:102B10002878C00728D06868012810D021680228CA
:102B200010D0890700292EDA616821F003010143E2
:102B30006160FFF741FC804641F288390DE0216871
:102B40008903EFE78901EDE7FFF736FCA0EB080109
:102B5000494502D90320BDE8F0876068696800F044
:102B60000C00B0EB810FEFD1306800F00700B842E5
:102B70000BD9306820F0070038433060306800F02F
:102B80000700B84201D00120E5E72878400705D5C5
:102B90006068E96820F4E060084360602878000716
:102BA00006D56068296920F4605040EAC100606081
:102BB00000F058F86168084AC1F30311515CC8403D
:102BC0000649086006480068FFF7C6FE0020C2E715
:102BD0000020024000100240A68A000848000020A1
:102BE000400000200F2202600C4A536803F00303E8
:102BF0004360536803F0F0038360536803F4E063B9
:102C0000C36052684FF4E06303EAD20202610448F1
:102C1000006800F0070008607047000000100240E4
:102C2000002002400448054900684968044AC1F38D
:102C30000221515CC840704748000020001002404B
:102C4000B68A00080448054900684968044AC1F387
:102C5000C221515CC840704748000020001002406B
:102C6000B68A00080E4A51680E4801F00C03042B86
:102C700011D0082B0FD10C48C1F38343C903C05CAA
:102C80000AD55168084AC1F34041921E515C054A79
:102C90005043B0FBF1F070470449484370470000CF
:102CA0000010024000127A00968A000800093D00D8
:102CB0002DE9F84F040070D02078C04DC00749D0EE
:102CC0006868C0F38100012807D06868C0F38100FC
:102CD000022809D16868C00306D52868800339D561
:102CE00060680028E7D035E06068B0F5803F0BD021
:102CF00010B1B0F5A02F11D0286820F480302860E2
:102D0000286820F4802002E0286840F480302860A1
:102D1000606890B1FFF750FB06460AE0286840F46F
:102D200080202860F0E700BFFFF746FB801B642887
:102D300073D828688003F7D50CE0FFF73DFB064603
:102D400005E000BFFFF738FB801B6428F0D8286837
:102D50008003F7D420789A4E80074FF001094FF096
:102D6000000839D5686810F00C0F07D06868C0F308
:102D70008100022809D16868C00306D4286880074A
:102D800014D52069012808D110E02069B0B1C6F837
:102D90000090FFF711FB074605E00AE1FFF70CFB87
:102DA000C01B0228C4D828688007F7D52868616945
:102DB00020F0F80040EAC10028600DE0C6F800806D
:102DC000FFF7FAFA074604E0FFF7F6FAC01B0228FD
:102DD00023D828688007F7D4207800072CD57948B5
:102DE000A169D9B1C0F80090FFF7E6FA074604E000
:102DF000FFF7E2FAC01B02280FD8686A8007F7D5F0
:102E000071484FF4FA510068B0FBF1F0009000BF38
:102E10000098411E0091FAD20EE080E0C0F80080D8
:102E2000FFF7CAFA074604E0FFF7C6FAC01B0228FC
:102E300075D8686A8007F7D42078400760D5E869BC
:102E40000027C00008D4E86940F08050E861E869D4
:102E5000012700F0805000905C480168C90513D438
:102E60000168834641F480710160FFF7A5FA82464C
:102E700006E000BFFFF7A0FAA0EB0A0064284ED8D6
:102E8000DBF80000C005F5D5E06801280AD008B1DC
:102E9000052813D0286A20F001002862286A20F053
:102EA000040002E0286A40F001002862E06841F274
:102EB000883B98B1FFF780FA82460BE0286A40F021
:102EC00004002862EEE700BFFFF776FAA0EB0A01E4
:102ED00059455AD8286A8007F6D50CE0FFF76CFAF6
:102EE000824605E0FFF768FAA0EB0A0159454CD885
:102EF000286A8007F6D41FB1E86920F08050E861A5
:102F0000E06988B36968C1F38101022944D00228CD
:102F1000C6F8608004D0FFF74FFA044638E034E08A
:102F2000FFF74AFA074604E0FFF746FAC01B0228FB
:102F30002BD828688001F7D4206AB0F5803F05D1EE
:102F40006868A16820F4003008436860D4E908018B
:102F50000843696821F4741108436860C6F86090FA
:102F6000FFF72AFA044606E025E000BFFFF724FA3F
:102F7000001B022809D828688001F7D51BE000BF94
:102F8000FFF71AFA001B022802D90320BDE8F88FC8
:102F900028688001F4D40EE00128F7D06868226A1E
:102FA00000F48031914204D1616A00F470108842CB
:102FB00001D00120EAE70020E8E70000001002400D
:102FC000000042428004424248000020007000405D
:102FD00070B5040009D0606A002540B125616561C3
:102FE000A56294F8510040B10CE0012070BD60680A
:102FF000B0F5827FF4D0E561F2E784F850502046C6
:1030000000F040F8022084F851002068016821F0A7
:1030100040010160A088218900F4827001F404411C
:103020000843A18901F400610843217C01F00201F9
:103030000843217D01F001010843218B01F4007157
:103040000843217F01F03801084394F8201001F073
:1030500080010843218D01F4005108432168086074
:10306000A069042101EA1040216848602068C16914
:1030700021F40061C1616565012084F851000020E0
:1030800070BD000030B585B0002400940194029416
:103090000394234D0368234802210322AB4216D137
:1030A000836943F480538361836903F480530493F9
:1030B000836943F0040383618069039200F0040094
:1030C0000490A020CDE900016946174823E0174D80
:1030D000AB4222D1C36943F48043C361C36903F4A3
:1030E00080430493836943F0080383618069104D32
:1030F00000F0080004904FF42040CDE90001039255
:1031000069462846FFF75AF84FF48040CDE900049D
:10311000694628460294FFF751F805B030BD00001B
:10312000003001400010024000080140003800401B
:10313000000C01402DE9F84F044690F851001D465F
:1031400016460F46012838D160684FF00408B0F5E4
:10315000827F01D1A06830B3FFF72EF98246002F9D
:1031600075D0002E73D094F85000012825D04FF070
:10317000010984F8509084F851804FF00008C4F899
:103180005480A763A687E687C4F83080A4F834800B
:10319000A4F83680C4F84080C4F84480A068B0F534
:1031A000004F0CD015E084F85180009313460A4676
:1031B000204600F01CF9BDE8F88F0220FBE72068EC
:1031C000016821F0400101602068016821F480411C
:1031D000016020680168490603D4016841F040019C
:1031E0000160E068C0B134E020688168C90709D097
:1031F000007BA16B0870A06B401CA063E08F401E99
:10320000E08709E0FFF7D8F8A0EB0A00A84202D354
:10321000681C01D032E085B3E08F0028E4D11BE0C8
:1032200020688168C90709D0C068A16B0880A06BBD
:10323000801CA063E08F401EE0870AE0FFF7BCF827
:10324000A0EB0A00A84203D3681C02D016E012E0EB
:103250009DB1E08F0028E3D152462946204601F077
:1032600001F808B12020606584F8519084F85080FE
:10327000606D00289FD001209DE7FFE784F8519002
:1032800084F85080032096E72DE9F84F98461646BB
:103290008A460446FFF790F8814694F851000128C9
:1032A0001ED1BAF1000F73D0002E71D094F85000E7
:1032B000012815D0012784F85070032084F85100AC
:1032C00000256565C4F830A0A686E686A563A587B7
:1032D000E58765642564A068B0F5004F03D00CE075
:1032E0000220BDE8F88F2068016821F040010160EC
:1032F0002068016841F48041016020680168490646
:1033000003D4016841F040010160E068B0F5006F4E
:10331000606803D048B3012E27D047E008B1012EE2
:103320001FD1206B21680088C86006E02068816892
:10333000890709D5216B0988C160206B801C206337
:10334000E08E401EE0860CE0FFF736F8A0EB0901A6
:10335000414503D3B8F1FF3F03D035E0B8F1000F8A
:1033600032D0E08E0028E1D123E0206B2168007884
:10337000087306E02068816889070AD5216B0978FF
:103380000173206B401C2063E08E401EE0860DE040
:103390002BE0FFF711F8A0EB0901414503D3B8F189
:1033A000FF3F03D010E0B8F1000F0DD0E08E0028F1
:1033B000E0D14A464146204600F082FF08B1202075
:1033C0006065A06830B109E084F8517084F850500D
:1033D000032086E72068C1688068009084F85170F7
:1033E00004F8505F60680028F3D0012079E72DE9E8
:1033F000FF4F81B01D46934604464FF001090E9ED3
:10340000FEF7DAFF074694F851006168012806D0FC
:10341000B1F5827F3CD1A168C9BB042838D102989C
:10342000002871D0BBF1000FFBD0002DF9D094F82B
:10343000500001282CD04FF0010A84F850A094F8D5
:103440005100042802D0052084F851004FF00008F4
:10345000C4F85480C4F838B0E587A5870299216381
:10346000E586A586C4F84080C4F8448020680168D9
:10347000490603D4016841F040010160E068B0F5FD
:10348000006F606808D0F0B3012D49D081E0FFE7FC
:10349000022005B0BDE8F08F08B1012D39D1206BB5
:1034A00021680088C860206B801C2063E08E401E6D
:1034B000E0862EE02068816889070FD5E18E69B12A
:1034C000B9F1010F0AD1216B0988C160206B801C02
:1034D0002063E08E401EE0864FF00009206881687E
:1034E000C9070CD0E18F51B1C068A16B0880A06BF7
:1034F000801CA063E08F401EE0874FF00109FEF7BB
:103500005BFFC01B01E00BE067E0B04201D3701C21
:1035100050D1E08E0028CDD1E08F0028CAD13EE006
:10352000206B216800780873206B401C2063E08EBC
:10353000401EE0862DE02068816889070FD5E18E66
:1035400069B1B9F1010F0AD1216B09780173206BC0
:10355000401C2063E08E401EE0864FF0000920688A
:103560008168C9070CD0E18F51B1C068A16B0870A8
:10357000A06B401CA063E08F401EE0874FF0010964
:10358000FEF71AFFC01BB04202D3701C01D011E03D
:1035900086B1E08E0028CED1E08F0028CBD13A460C
:1035A0003146204600F08CFE50B12020606584F842
:1035B000508012E084F851A084F85080032068E71E
:1035C000A06818B92068C1688068009084F851A08C
:1035D00084F85080606D0028F1D0012059E77047D1
:1035E000704710B5040003D094F83D0010B107E017
:1035F000012010BD002084F83C00204600F01EF899
:10360000022084F83D00211D206801F08DFA012080
:1036100084F8460084F83E0084F83F0084F84000B7
:1036200084F8410084F8420084F8430084F84400A0
:1036300084F8450084F83D00002010BD704700006C
:1036400090F83D10012901D001207047022180F837
:103650003D100168CA6842F00102CA6000680B4967
:10366000884208D0B0F1804F05D00949884202D085
:103670000849884204D1816801F00701062903D076
:10368000016841F00101016000207047002C0140F9
:10369000000400400008004070472DE9F041044656
:1036A0000068C66805694FF00007A90713D5B10780
:1036B00011D5F91E016101202077206880698007FB
:1036C000204602D0FFF7E8FF04E000F07EF8204635
:1036D00000F07CF82777680716D5700714D52168A5
:1036E0006FF004000861022020772068806910F4E0
:1036F000407F204602D0FFF7CFFF04E000F065F8DE
:10370000204600F063F82777280715D5300713D532
:1037100021686FF008000861042020772068C069E4
:103720008007204602D0FFF7B7FF04E000F04DF815
:10373000204600F04BF82777E80616D5F00614D59A
:1037400021686FF010000861082020772068C069A8
:1037500010F4407F204602D0FFF79EFF04E000F007
:1037600034F8204600F032F82777E80708D0F00751
:1037700006D021686FF001000861204600F028F8AB
:10378000280608D5300606D521686FF0800008614C
:103790002046FFF724FF680608D5700606D5216885
:1037A0006FF040000861204600F01CF8A8060AD51A
:1037B000B00608D521686FF0200008612046BDE8FA
:1037C000F041FFF70DBFBDE8F08170477047000082
:1037D00000680349884201D1FFF7A4B87047000090
:1037E00000080040704770B5040004D094F8410010
:1037F000002510B106E0012070BD84F8405020463D
:1038000000F024F8242084F841002068C16821F4E5
:103810000051C160204601F0EBF92068016921F4F4
:10382000904101612068416921F02A0141612068CD
:10383000C16841F40051C1606564202084F84100F2
:1038400084F842006563002070BD0000F0B585B0CB
:10385000002400940194029403940368324F0220E0
:1038600032490322324D4602BB421AD18B6943F4DE
:1038700080438B618B6903F4804304938B6943F02D
:1038800004038B618969039201F004010491010230
:10389000CDE9001069462846FEF790FCCDE90064AA
:1038A0001CE0244FBB4220D1CB6943F40033CB61F1
:1038B000CB6903F4003304938B6943F004038B61F9
:1038C0008969039201F0040104910421CDE90010FB
:1038D00069462846FEF772FC082022E06946284621
:1038E0000294FEF76BFC05B0F0BD134DAB42FAD16C
:1038F000CB6943F48023CB61CB6903F48023049329
:103900008B6943F008038B6189690C4D01F0080154
:10391000CDE90321CDE9006069462846FEF74EFC5B
:10392000E814CDE90004D9E7003801400010024056
:10393000000801400044004000480040000C0140E5
:103940002DE9F843044690F84100984616460D4686
:10395000202802D00220BDE8F88385B17EB1002086
:103960006064212084F84100FEF726FDA68481468C
:10397000E684A0682027B0F5805F02D003E0012034
:10398000E9E7206910B12E4600250EE000260CE084
:103990008021204601F088F9A8B9C6B116F8010BBC
:1039A00021684860E08C401EE084E08C4B464FF07C
:1039B0000002CDF800800028EAD14FF040012046F7
:1039C00001F072F940B184F841700320C3E735F883
:1039D000020BC0F30800E3E784F841700020BAE767
:1039E000FEE701684A69D24352050FD46FF4806242
:1039F0004A61002140F8301F20224273817302691E
:103A000042F00402026101730120704700207047F8
:103A10002DE9F84F0446C06A1E4693460D462168BC
:103A20000A6842F480620A60082807D0012805D09D
:103A300010F5803F02D0206B112804D12068016866
:103A400041F4807101604FF001195B460022494644
:103A50002046009600F0CCF84FF4007840B1206882
:103A60000068C00501D5C4F840800320BDE8F88F88
:103A70002069DFF884A0B0F5804F0FD006202168C0
:103A800000EAD51747F0F000086133465A460AF1BC
:103A90000601204600F0F4F858BB03E0E8B240F01D
:103AA00001001CE02168E8B2086133465A465146DD
:103AB000204600F0E5F8E0B920684169816900918D
:103AC000016841F4807101605B460022494620464E
:103AD000009600F08DF80028C1D147F0F100216870
:103AE000086133465A465146204600F0C9F800287E
:103AF000BCD00120BAE7000002000100F8B504467E
:103B0000C06A1E460D461746082807D0012805D072
:103B100010F5803F02D0206B122804D12068016884
:103B200041F480710160134600224FF001112046DC
:103B3000009600F05DF840B120680068C00502D52D
:103B40004FF4007020640320F8BD2069B0F5804F69
:103B50000ED00620216800EAD51040F0F000086180
:103B600033463A460B49204600F08AF878B902E01D
:103B700005F0FE0000E0E8B221680861054933461F
:103B80003A46891F204600F07BF80028DCD001204F
:103B9000F8BD00000800010070B516460D46044649
:103BA0001EE02046FFF71DFF08B1012070BD681C14
:103BB00016D0FEF701FC801BA84200D885B920680A
:103BC0004069C04340070BD5002044F8300F202146
:103BD0006173A073216941F0200121612073E4E742
:103BE00020684069C0434007DBD4002070BD00005E
:103BF0002DE9F047984617460D460446C1F307469F
:103C0000DDF820902AE000BFB8F1FF3F26D0FEF794
:103C1000D3FBA0EB0901414502D8B8F1000F1DD13B
:103C20002068012E16D0806925EA00000004000CEF
:103C300012D00020B84211D1002044F8300F2021CA
:103C40006173A073216941F020012161207301207B
:103C5000BDE8F0874069E7E70120EBE72068012E27
:103C60000AD0806925EA00000004000C06D000207C
:103C7000B842C9D00020EBE74069F3E70120F7E73D
:103C80002DE9F047984616460D4604464FF00009C8
:103C90004FF0200AC1F3074723E020684069C04382
:103CA000400515D42068016841F400710160216865
:103CB0006FF480604861C4F8309084F83DA084F8C7
:103CC0003E90216C41F00401216484F83C9021E095
:103CD000701C06D0FEF770FBA0EB0800B04203D8C2
:103CE00016B1012F1FD021E02068012F15D0806967
:103CF00025EA00000004000C18D000BF44F8309FF3
:103D000084F80DA084F80E90216941F02001216112
:103D100084F80C900120BDE8F087406925EA000096
:103D20000004000CEAD12068406901E02068806945
:103D300025EA00000004000CAFD1ECE72DE9F041CA
:103D4000002590460E460446202728E04069C043DF
:103D5000C0060CD454F8301B6FF01000486144F8D2
:103D600010596777A577206A2062257714E0FEF75F
:103D700023FBA0EB0800B04200D886B92068406958
:103D8000C04340060BD544F8305F6773A5732069C4
:103D900040F02000206125730120BDE8F0812068FB
:103DA0004169C9434906D1D40020F6E770B51646EB
:103DB0000D4604461EE02046FFF713FE08B1012021
:103DC00070BD681C16D0FEF7F7FA801BA84200D819
:103DD00085B920684069C04300060BD5002044F82F
:103DE000300F20216173A073216941F0200121610E
:103DF0002073E4E720684069C0430006DBD400205C
:103E000070BD00000E4810B50C49016009214160E9
:103E100000214FF480228160C0E9031292004261C8
:103E2000017641768176C17601774177FEF7C5F854
:103E3000002801D072B6FEE710BD0000006400400B
:103E4000D800002010B504490448FDF78FFF02494F
:103E5000491E087010BD0000CA000020B4000020F8
:103E60002DE9F04786B0002435480094019402946F
:103E70000394816941F010018161816901F01001B1
:103E80000491816941F020018161816901F0200183
:103E90000491816941F004018161816901F00401AB
:103EA0000491816941F0080181618069DFF894A083
:103EB00000F008004FF400570490002239465046A5
:103EC000FEF774FADFF8809040F203380022414692
:103ED0004846FEF76BFA0226012500970396CDE9C6
:103EE000015469465046FEF769F9CDF80080039603
:103EF000CDE9015469464846FEF760F9002239468B
:103F00005046FEF753FA00970396CDE901546946EF
:103F10005046FEF753F9E8028DE831000B4D694633
:103F20002846FEF74BF9A814CDE900060320CDE999
:103F3000024069462846FEF741F906B0BDE8F08721
:103F40000010024000100140000C01400008014038
:103F50000F4810B50D4901604FF482714160002196
:103F60008160C1604FF400720161C0E9051208224E
:103F7000C0E90721416281620A21C162FFF728F886
:103F8000002801D072B6FEE710BD000000300140ED
:103F9000540100200F4810B50D4901604FF48271A3
:103FA000416000218160C1604FF400720161C0E98D
:103FB00005121822C0E90721416281620A21C1620B
:103FC000FFF706F8002801D072B6FEE710BD00002A
:103FD00000380040AC010020FEE7FEE717218170A9
:103FE00023214170002101700221C1701021017153
:103FF0000C21417119218171704700007FB5044681
:1040000000208DF80C006425012303AAD021194853
:104010000095FEF7C3FB072301AAD02115480095A0
:10402000FEF794FA9DF80400FDF795FE20709DF8C8
:104030000500FDF790FE60709DF8060000F03F005F
:10404000FDF789FEA0709DF80700FDF784FEE07083
:104050009DF80800FDF77FFE20719DF8090000F033
:104060001F00FDF778FE60719DF80A00FDF773FEF2
:10407000A0717FBD000100202DE9F04105462148D7
:104080004FF6FF740078032800D04902FF22112068
:1040900000F03CF81C4F7E1538B1012231463846FD
:1040A000FEF784F90120BDE8F081FF2000F022F93D
:1040B000FF2808D0FE280BD0012231463846FEF7F3
:1040C00075F90220EFE7641E2404240CEDD1F3E718
:1040D0000024FF2000F00EF92855641CA4B2B4425D
:1040E000F7D3FF2000F006F9FF2000F003F90122CA
:1040F00031463846FEF75AF9FF2000F0FBF8002061
:10410000D1E70000C8000020000C01407FB540F05E
:1041100040008DF80000080E8DF80100080C8DF8A5
:104120000200080A8DF804108DF803008DF80520B0
:104130004FF6FF7400224FF400711048FEF736F975
:10414000012000F085F84FF0FF352B460622694626
:104150000B48FFF799F82B46012202A90848FEF701
:10416000E9FF9DF80800000603D5641E2404240C12
:10417000F1D19DF8080004B070BD0000000C0140B2
:10418000AC0100202DE9F0410546214800780328C4
:1041900000D04902FF221820FFF7B8FF1D4F7E15FF
:1041A00038B1012231463846FEF700F90120BDE85A
:1041B000F081FE2000F09EF80024285D00F09AF8BF
:1041C000641CA4B2B442F8D3FF2000F093F8FF209F
:1041D00000F090F8FF2000F08DF800F01F00052897
:1041E00006D0012231463846FEF7E0F80220DEE72D
:1041F000FF2000F07FF80028FAD00122314638462F
:10420000FEF7D4F8FF2000F075F80020CFE700009B
:10421000C8000020000C014010B50446FCF7CEF9A0
:1042200082B24FF47A7321460748FFF789FB642373
:10423000022206A10448FFF783FBBDE810404FF4BB
:10424000FA70FDF7A9BF00004C0200200D0A000023
:1042500010B5044602E0FF2000F04CF8641EE4B202
:10426000F9D210BDF8B5044640684FF48273984205
:1042700017D1A0684FF48065B0F5004F01D0A84277
:104280000FD12068066826F04006066060689842F4
:1042900007D1A068A84204D100920B460022012158
:1042A00003E000920B4600228021204600F032F805
:1042B000002804D0606D40F0200060650320F8BD48
:1042C000F8B515460E460B4600920446012202211F
:1042D00000F020F840B933460022802120460095A6
:1042E00000F018F8002804D0606D40F020006065F0
:1042F0000320F8BD01B582B04FF0FF3000900123DC
:1043000001AA02A90248FFF772F89DF804000EBD49
:10431000AC0100202DE9F8431E469146884604462C
:10432000089DFEF749F8401B351AFEF745F8074689
:1043300025480068C0F3CB30684338E0701C37D0A4
:10434000FEF73AF8C01BA84203D215B1009860B33B
:104350002CE02068416821F0E00141606068B0F520
:10436000827F0BD1A068B0F5004F02D0B0F5806F0E
:1043700004D12068016821F040010160A06AB0F515
:10438000005F09D12068016821F4005101602068B4
:10439000016841F400510160012084F851000020BF
:1043A00084F850000320BDE8F8830025401E0090EB
:1043B0002068816838EA010004D000214945BDD158
:1043C0000020F0E70121F9E7480000200FB42DE9B3
:1043D000F05F9A4683460025C3F3072622E00C9837
:1043E0000E99203800FB0650002431F810900B98ED
:1043F0000AF0FF0700EB050810E000BF09FA04F01F
:1044000000040BEB040008F0FF01C0B201D50F9AC5
:1044100000E0109A00F00CF8641CA4B2A742EDD89A
:104420006D1CADB2AE42DAD8BDE8F01F5DF814FBEA
:1044300010B51446802812D2A02910D24A1CD3B23B
:10444000421CD2B200F096F82C2000F0B9F8200AF5
:1044500000F0D4F8E0B2BDE8104000F0CFB810BDD5
:104460002DE9FE4F1F46DDE90D9814468B460546A3
:10447000DEB2DDF830A00BE0CDF800A0CDE9019868
:104480003B4659462846FFF7A1FF701985B2641CC8
:104490002278002AF0D1BDE8FE8F2DE9F0410546D3
:1044A0002C2000F08DF800244FF4A0472E0A30464F
:1044B00000F0A4F8E8B200F0A1F8641CBC42F6DBFE
:1044C000BDE8F08170B5294D4FF48074002221467B
:1044D0002846FDF76BFF1420FDF75EFE0122214602
:1044E0002846FDF763FF9620FDF756FE00220121C6
:1044F0002846FDF75BFF012000F062F89620FDF7EB
:104500004BFE112000F05CF8FF20FDF745FE362041
:1045100000F056F8082000F071F83A2000F050F84A
:10452000052000F06BF80021A0238022084600F04F
:1045300021F80F4C14F8010B14F8016BFF280CD074
:1045400000F03EF8002505E014F8010B00F056F8E5
:104550006D1CEDB2B542EDD2F6E7292000F030F83F
:10456000BDE870406420FDF717BE0000000C01405C
:10457000EE8900082DE9F04104461D4616460F4617
:104580002A2000F01DF8002000F038F8204600F046
:1045900035F8002000F032F8304600F02FF82B20DC
:1045A00000F00EF8002000F029F8384600F026F858
:1045B000002000F023F82846BDE8F04100F01EB8C6
:1045C00031B50C4C002201212046FDF7EFFE002200
:1045D00002212046FDF7EAFE4FF47A730122694674
:1045E0000548FEF751FE012211462046FDF7DEFE8A
:1045F00038BD0000000C01405401002031B50C4CC6
:10460000002201212046FDF7D1FE01220221204691
:10461000FDF7CCFE4FF47A73012269460548FEF798
:1046200033FE012211462046FDF7C0FE38BD0000D2
:10463000000C01405401002070B51C4C9CB0207847
:10464000012831D01AA0FFF7E7FD1CA0FFF7E4FD19
:10465000606903F03BFC05460E46206903F036FC1A
:10466000CDE900560B4602461AA102A8FBF768FEE8
:1046700002A8FBF7A3FF82B24FF47A7302A9204885
:10468000FFF75EF91A208DF86C00642301221BA944
:104690001B48FFF755F940F6B830FDF77DFD19A02E
:1046A000FFF7BAFD012020701CB070BD080000208B
:1046B00041542B434D47463D3100000041542B43AC
:1046C0004D47533D2230393636393736323932226A
:1046D0000000000043414E482042414F20544149D0
:1046E000204E414E21205669207472693A204C6157
:1046F000743A2025662C204C6F6E3A202566000007
:104700004C0200204154443039363639373632397C
:10471000323B00000025274CA8462F462E4640F687
:10472000B83900212448FDF7BDFBF8B1214B234ADD
:104730002B3300212048FDF7C6FBB8B9FDF73CFE3E
:10474000804601F043FFA068A8420FD0A068281A55
:104750001E2D0ADD142808DD0126FDF72DFE074673
:1047600017A001F05FFDA56802E0A568012E1CD12D
:104770002078D0B9FDF720FEC11B494515D9FDF7BA
:104780001BFEA0EB0801494501D9012000E00020F3
:10479000A16801B128B114A001F044FDFFF74CFF5E
:1047A00003E000261AA001F03DFD642001F053FE55
:1047B000B7E7000008000020D80000202C030020EC
:1047C0005741524E494E473A204869676820446530
:1047D00063656C65726174696F6E204465746563AE
:1047E000746564210D0A00004143434944454E5419
:1047F00020434F4E4649524D4544212053656E6437
:10480000696E6720416C6572742E2E2E0D0A0000B1
:1048100046616C736520416C61726D3A204A757314
:10482000742068617264206272616B696E672E0D1C
:104830000A0000008CB03648FFF744FE0020FFF766
:104840002CFEDFF8D090344C00264FF6FF7B4FF063
:104850001E0A40F2FF772F48FFF7D0FBCDE901B6E3
:104860006068009005212DA200202368FFF7F8FD65
:1048700099F800000090D0464D4699F8013099F81B
:10488000022029A103A8FBF75BFDCDE90176606852
:10489000009003AA414600202368FFF7E1FDA879B4
:1048A00000904FF037086B792A7925A103A8FBF710
:1048B00047FDCDE901766068009003AA41460020DB
:1048C0002368FFF7CDFD134850252438826822A1C4
:1048D00003A8FBF735FD4FF6E070CDE901066068EF
:1048E000009003AA294600202368FFF7B9FD4FF482
:1048F000FC60CDE901066068009069211BA20020E0
:104900002368FFF7ADFDC82001F0A5FDA3E7000077
:10491000540100202C0000200000002043414E20C4
:104920004D4F4E49544F520054696D653A20253021
:1049300032643A253032643A253032642020000057
:10494000446174653A20253032642F253032642F5B
:10495000323025303264200053706565643A20257A
:1049600064206B6D2F682020200000004465763A9B
:10497000204B6869656D0000ADF59B6D2BA001F0C3
:1049800051FC01222EA18FA800F028FF2D4E4FF4DC
:10499000005138B100223046FDF708FD642001F0D7
:1049A0005AFDFBE70D46122227A104A800F058FF8C
:1049B00004000BD029463046FDF7F0FC642001F0DE
:1049C0004AFD214622A001F02DFCECE704A88799BE
:1049D00000F0AEFD244C606803F078FACDE90201E6
:1049E000A26804F124000178CDE9001243788278AE
:1049F0001EA10DF58E60FBF7A3FC0DF58E60FBF795
:104A0000DDFD02460DF2D4430DF58E6104A801F0E0
:104A100065F804A800F070FD29463046FDF7BEFC9D
:104A20004FF47A7001F017FDBDE70000456E746524
:104A3000726564205461736B3033210D0A000000ED
:104A400000000000001001406C6F672E7478740045
:104A500046696C65204F70656E204572726F723AC0
:104A60002025640D0A000000080000202530326473
:104A70003A253032643A253032642C205350443A7F
:104A800025642C2052504D3A252E30660A00000035
:104A900010B5502080F31188BFF34F8FBFF36F8F95
:104AA00003F04EF818B104494FF080500860002020
:104AB00080F3118810BD000004ED00E030B58FB028
:104AC00028216846FBF710FE14210AA8FBF70CFE0C
:104AD00001210804CDE9001000240294022504916C
:104AE000CDE907504FF4E01009906846FEF7E0F872
:104AF00008B172B6FEE70F20CDE90A054FF48060D9
:104B0000CDE90C4002210AA80E94FDF7D5FF00283C
:104B100001D072B6FEE70FB030BD70470148FEF716
:104B2000BCBD0000DC070020F0B50268194B1A4C30
:104B30001A4D4FF08047984205D0B84203D0A042AA
:104B400001D0A84203D122F070064A68324398424D
:104B500005D0B84203D0A04201D0A84203D122F42C
:104B60004074CA6822434C6922F0800222430260EA
:104B70008A68C2620A688262984201D10969016347
:104B8000012141610169C90703D0016921F00101D7
:104B90000161F0BD002C014000040040000800400D
:104BA00001680C3151E8002F22F4907241E8002393
:104BB000002BF5D10168143151E8002F22F00102D9
:104BC00041E80023002BF5D1016B012909D10168CF
:104BD0000C3151E8002F22F0100241E80023002B95
:104BE000F5D1202180F842100021016370470000B8
:104BF00070B5044600680169E26821F44051114330
:104C000001612169A0680843616908432168CA6895
:104C100041F20C639A430243CA6020684169A26969
:104C200021F44071114341611E492068884202D13C
:104C3000FEF708F801E0FDF7F5FF00EBC00101EB1E
:104C40000012606864218000B2FBF0F3B3FBF1F363
:104C50006FF018067343B2FBF0F5B2FBF0F605EB0C
:104C60008305322303EB0515B5FBF1F5B6FBF1F631
:104C700005F0F00505EB0615B2FBF0F6B2FBF0F01F
:104C8000B0FBF1F06FF01802504306EB800003EB2D
:104C90000010B0FBF1F0216800F00F00284488609C
:104CA00070BD0000003801402DE9F84398461746D2
:104CB0000D460446089E24E0701C22D0FDF77CFBC4
:104CC000A0EB0800B0421AD8CEB12068C1684907ED
:104CD00017D5802D15D0402D13D00168C943090781
:104CE0000FD401680025406800902046FFF758FF68
:104CF0000820606484F840500120BDE8F883032058
:104D0000FBE72068006835EA000004D00020B842C4
:104D1000D2D00020F1E70120F9E700002DE9FC479F
:104D20000122444E550229463046FDF73FFB0A203A
:104D3000FFF78EFA6C1E002195220846FFF7E6F970
:104D40000746012229463046FDF730FBFF20FFF7DA
:104D5000D1FA012F04D0641E2404240CEBD15BE0B3
:104D6000002C59D087224FF4D5710820FFF7CEF9D7
:104D7000DFF8C480012812D0012188F80010FF223A
:104D800029461020FFF7C2F9012229463046FDF7D7
:104D90000DFBFF20FFF7AEFA0020BDE8FC870024E2
:104DA00001AFFF20FFF7A6FA3855641CE4B2042CCB
:104DB000F7D34FF6FF744FF08049FF2200213720D0
:104DC000FFF7A4F9FF2249462920FFF79FF907467C
:104DD000012229463046FDF7E9FAFF20FFF78AFA5B
:104DE00027B1641E2404240CE7D115E0A4B1FF22EE
:104DF00000213A20FFF78AF900246F46FF20FFF7D1
:104E000079FA3855641CE4B2042CF7D39DF80000FD
:104E1000400603D5032102E00120BEE7022188F805
:104E20000010012229463046FDF7C0FAFF20FFF7A7
:104E300061FAA4E7000C0140C800002039B1012943
:104E40000CD0022905D0032906D004207047002089
:104E500070474FF4007003E0012001E04FF4004080
:104E60001080F4E72DE9F0411D4616460F46002458
:104E700009E0311907EB4420FFF7FEF810B10120DB
:104E8000BDE8F081641CAC42F3D30020F8E70020B9
:104E900070472DE9F0411D4616460F46002409E0F3
:104EA000311907EB4420FFF76DF910B10120BDE87F
:104EB000F081641CAC42F3D30020F8E7FEE7490020
:104EC00050EAC12018BF04204A0D18BF40F001006D
:104ED00040F2FF72B2EB515F08BF40F002000128C0
:104EE00008BF052070470907090E002804DB00F100
:104EF000E02080F80014704700F00F0000F1E0207F
:104F000080F8141D704730380A2801D201207047FC
:104F10000020704710B50446002084F80402401EAB
:104F2000C4F83002204601F07BFA08B1032010BD1E
:104F3000B4F8FE01A0F52A41553901D0022010BD78
:104F400094F83600B4F8371040EA01210848B0EB75
:104F5000012F08D094F85210B4F8532041EA0221EE
:104F6000B0EB012F01D1002010BD012010BD0000C9
:104F700000464154F0B50022184B144602EB42069D
:104F800053F8265085B1D0F80072BD420DD103EB25
:104F90008605D0F808626F68B74206D12D89B0F84F
:104FA0000662B54204D000E00124521C022AE5D377
:104FB000022A01D079B904E05CB9022909D0122093
:104FC000F0BD02EB420003EB80004089B0F5807F2A
:104FD00001D00020F0BD1020F0BD00005449002099
:104FE00030B50021064A0C4601EB410352F823502C
:104FF000854201D142F82340491C0229F4D330BD37
:1050000054490020D0F82422D0F80002490A90F830
:105010000202B1FBF0F0121D02CA19B1884203D39B
:10502000401AF8E700207047116808447047D0F82C
:105030001822891E921E8A4201D800207047D0F89B
:105040002C2290F8020201FB002070472DE9F0416C
:105050000F00054606D000F0FFFF02280BD201200A
:10506000BDE8F081D5F810621EB1D5F81802B04243
:1050700008D8012606E0411CF2D0D5F8181281426A
:10508000EED83E463446D5F81802641CA04202D839
:105090000224022E0AD32146284600F0DDFF38B153
:1050A000411CDDD00128DBD0B442ECD10020D7E791
:1050B0006FF070422146284601F07FFD30B957B1AC
:1050C00022463946284601F078FD20B1012812D049
:1050D00001242046C4E7C5F81042D5F81402411C4B
:1050E000F7D0401EC5F8140295F8050240F0010003
:1050F00085F80502EDE74FF0FF34EAE72DE9F047C8
:1051000089460C6800E0641C21782F29FBD05C29BB
:10511000F9D0D0F818520B222021284601F079F955
:10512000002001460B460826E25C5B1C202A35D98C
:105130002F2A33D05C2A31D02E2A01D0B04208D396
:10514000082E38D12E2A36D108200B268906090EC2
:10515000EAE7802A05D3244F41F003013A4412F8CC
:10516000802C22A700E07F1C97F800C0BCF1000F44
:1051700002D09445F7D11EE0A2F14107192F02D8C1
:1051800041F0020107E0A2F16107192F03D8203A8C
:1051900041F00101D2B22A54401CC5E71C44C9F8B1
:1051A0000040202A01D8042200E0002218B128780B
:1051B000E52803D004E00620BDE8F087052028702C
:1051C000082E01D18806010E01F00300012801D14B
:1051D00042F01002C1F38100012801D142F008021F
:1051E000EA720020E8E70000BE8A0008222A2B2C81
:1051F0003A3B3C3D3E3F5B5D7C7F0000401E022809
:1052000015D20C4B00EB400203EB82014889B0F54C
:10521000807F05D008B1401E80B2488110B104E003
:105220000020FAE7002043F8220000207047022007
:1052300070470000544900202DE9F041B0F80662A3
:105240000446761C30040F46000C37D0D4F8100208
:1052500098B3310773D1401CC4F81002D4F80C1273
:10526000D4F8000231B190F80222521E12EA161F41
:1052700005D064E0B0F80802B0421FD95FE000F04A
:10528000EBFE054601281ED9681C3AD0D4F800026E
:10529000D0F81812A94249D87FB1D4F80C12FFF700
:1052A000D5FE05000DD0012D0DD0681C29D0D4F8F5
:1052B000000201F025FE20BB07E0FFE70420BDE867
:1052C000F0810720FBE70220F9E74FF4007200218C
:1052D000D4F8000201F09DF82946D4F80002FFF747
:1052E000A6FED4F8001200274FF00108C1F83002E2
:1052F00011E000BF80F80482D4F8000201F000FE43
:1053000008B10120DBE7D4F80002D0F83012491CC4
:105310007F1CC0F83012D4F8000290F80212B94293
:10532000E8D8D0F83012C91BC0F83012C4F80C52BB
:105330002946D4F80002FFF77AFEC4F81002A4F858
:105340000662D4F8000206F00F0100EB4110C4F829
:1053500014020020B3E770B50446002100F036F8CF
:1053600010E0D4F81012D4F8000201F059F858B93E
:10537000D4F814020078E52809D040B10121204674
:10538000FFF75AFF0028ECD0042809D009E0D4F830
:105390001012D4F8000201F043F8050003D013E026
:1053A0000720054610E0D4F814022022002104F55D
:1053B000007401F02EF8D4E905010B2201F020F869
:1053C0002168012081F80402284670BD70B5A0F85C
:1053D0000612D0F808320D460446012B40D0D4F80E
:1053E0000002D0F8181299423AD933B990F8001255
:1053F000032906D1D0F828321BB190F80202060129
:1054000014E0B0F80812A9422AD9D0F8280214E012
:1054100000F022FE0346401C20D0022B20D3D4F8FB
:105420000002D0F8180298421AD9AD1BD4F8000235
:10543000B5421946ECD2FFF7FAFDC4F80C3278B148
:1054400000EB1510C4F81002D4F8000205F00F01AB
:1054500000EB4110C4F81402002070BD012070BDA3
:10546000022070BD084910B50B5C002253B901221F
:105470000A540A1801EB8000127A4068016810464D
:1054800088470246104610BD6C49002030B4054CD8
:10549000231804EB80001B7A406804691846A44670
:1054A00030BC60476C49002030B4054D2C1805EB2A
:1054B0008000247A406885682046AC4630BC60474E
:1054C0006C490020044A111802EB8000097A4068F8
:1054D00042680846104700006C49002030B4054D72
:1054E0002C1805EB8000247A4068C5682046AC463D
:1054F00030BC60476C49002070B5054600F084FA66
:10550000040012D1284601F061FF04000DD1D5F846
:105510000062D5F82802FFF771FE040001D1C5F83A
:1055200000020021304601F01BFD204670BD000046
:105530002DE9FC5F0D46044601F048FF5FEA0009D3
:1055400079D194F8071239B1D4F8000201F008FDBE
:1055500094F80702BDE8FC9FD4F8240201274FF01D
:10556000020A00287DD0691C33D0D4F80C02A8426E
:1055700000D20546C4F80852002D5CD02046691EB2
:10558000FFF740FD0146C4F81402D4F80002FFF70B
:105590004EFD002866D0D4F800126D1E91F802224C
:1055A000521E02EA55221518B4F80802C005E4D0CC
:1055B000D4F81822AA42E0D094F80602400644D556
:1055C00091F8010201232146FFF788FF002873D1DB
:1055D00035E002C80091D4F810128346022509B3C1
:1055E0000026AD1C01918846761CD4F8000200F01C
:1055F00033FD0146012835D9481C5DD008F1010072
:105600008142F0D00098854206D8CBF800600BF1BB
:105610000400019A04C08346D4F80002D0F81802AE
:105620008842DDD8D4F8240205600098854203D86A
:105630000021CBF80010CAE04FF01109C7E094F840
:10564000060220F0400084F80602D4F8000201238C
:105650002A4690F801022146FFF726FF00282BD1A9
:1056600001E003E083E0C4F81852B0E0D4F80C0283
:10567000A84204D294F80612890700D405464FF0D8
:105680000008D4F80802C4F808823DB3D4F8002218
:1056900092F802124E0280B1691E401EB1FBF6F173
:1056A000B0FBF6F3994208D3711E8843C4F8080290
:1056B0002D1AD4F8141210E072E0D4F8101251B977
:1056C00000211046FFF7C2FC014601284FD0481CBC
:1056D00066D0C4F81012C4F8141211BB31E000BF38
:1056E00094F806028007D4F8000205D5FFF7AEFC57
:1056F000010004D1354616E000F0AEFC0146481C1E
:105700004ED0012933D9D4F80002D0F818028842CB
:105710002DD9C4F81412D4F80802AD1B3044C4F8D3
:105720000802B542DCD8D4F808022844C4F80802BC
:10573000E80506D0D4F80002FFF779FCB8B100EB19
:105740005528B4F80802C00535D0D4F818224245CF
:1057500031D094F80602400618D5D4F8000201238F
:10576000214690F80102FFF7B9FEC8B908E084F8B5
:1057700007A20221D4F8000201F0F2FB0220E9E6C0
:1057800094F8060220F0400084F80602D4F80002E3
:105790000123424690F801022146FFF785FE40B101
:1057A00084F807720121D4F8000201F0D9FB01202E
:1057B000D0E6C4F81882D4E98201884207D9C4F837
:1057C0000C0294F8060240F0200084F806024946D4
:1057D000D4F8000201F0C4FB4846BBE62DE9F741CE
:1057E00081B0904602980090684600F098FC040052
:1057F00003D50B2004B0BDE8F081184E002756F801
:1058000024504DB12846FFF7EBFBD5F80C0200F011
:1058100080FAA0B185F80072019939B181F800725F
:10582000E0B201F5037100F066FA40B1019846F864
:10583000240010B1B8F1010F03D00020DAE70220F4
:10584000D8E7002202A901A800F074FA0446014634
:10585000019801F085FB2046CCE70000D400002031
:105860002DE9F747ADF50B7D06000ED04FF000088F
:1058700002F01F0727F001028CA980A8C6F8008259
:1058800000F058FA040005D0B4E009200DF50E7DB3
:10589000BDE8F08788A8869068468C9900F07CFB6C
:1058A000859D04000BD11DB1780803D0012102E0D1
:1058B000062404E000216846FFF75CFB044617F06D
:1058C0001C0F5FD04FF0010AD4B1042C13D100207B
:1058D0004C4902E0401C022805D200EB400251F87E
:1058E0002220002AF6D1022804D06846FFF733FDB3
:1058F000044600E01224859D47F0080754B179E082
:10590000E87A10F0110F01D0072473E0780701D571
:1059100008246FE0380743D500F0FFFBA873010AA5
:10592000E973010C2974000E687485F80B8085F802
:105930001C8085F81D8085F81E8085F81F8029460B
:10594000809800F061FC81460021284601F075FA3C
:105950008099B9F1000F81F804A21FD080984946C0
:10596000D0F830A201F032FA040043D18099A9F1B5
:105970000100C1F810025146809800F051FD04006A
:105980000AD037E0B4BBE87AC10601D5042431E07F
:10599000B90701D5C007B7D1380701D547F02007AF
:1059A0008098D0F83002C6E98705780801D0012137
:1059B00000E00021684600F0D7FBC6F82802F8B1E5
:1059C00086F8067286F807824746294606F500766D
:1059D000809800F019FC3061287FD5F81D1040EA4E
:1059E0000120C6E90270B761776280983060B0F834
:1059F0000602B0802146809801F0B2FA204645E7C1
:105A00000224F7E75449002070B5044601F0DEFC9B
:105A100005005BD194F80602810657D5400617D5DC
:105A2000D4F800020123214690F80102D4F818228C
:105A3000FFF754FD30B10121D4F8000201F090FAD3
:105A4000012070BD94F8060220F0400084F80602A0
:105A5000D4F81C12D4F8000200F0E2FC050035D1A5
:105A6000D4F82052E87A40F02000E87294F80C0252
:105A70002877B4F80C02000A6877D4F80C02000CFE
:105A8000A877D4F80C02000EE877D4F81012284654
:105A900004F5007401F0D1F900F03FFBA875010A8C
:105AA000E975010C2976000E68760020A874E87468
:105AB000A07920F02000A0712168012081F8040263
:105AC0002068A4F5007401F0C0F905462946D4F811
:105AD000000201F045FA284670BD00002DE9F84F9C
